{
  "_format": "hh-sol-artifact-1",
  "contractName": "Marketplace",
  "sourceName": "contracts/ESDC_marketplace.sol",
  "abi": [
    {
      "inputs": [
        {
          "internalType": "contract IERC20",
          "name": "_token",
          "type": "address"
        },
        {
          "internalType": "contract IERC721Enumerable",
          "name": "_nft",
          "type": "address"
        }
      ],
      "stateMutability": "nonpayable",
      "type": "constructor"
    },
    {
      "anonymous": false,
      "inputs": [
        {
          "indexed": true,
          "internalType": "address",
          "name": "_from",
          "type": "address"
        },
        {
          "indexed": false,
          "internalType": "uint256",
          "name": "_tokenId",
          "type": "uint256"
        },
        {
          "indexed": false,
          "internalType": "uint256",
          "name": "_price",
          "type": "uint256"
        }
      ],
      "name": "BuyNFT",
      "type": "event"
    },
    {
      "anonymous": false,
      "inputs": [
        {
          "indexed": true,
          "internalType": "address",
          "name": "_from",
          "type": "address"
        },
        {
          "indexed": false,
          "internalType": "uint256",
          "name": "_tokenId",
          "type": "uint256"
        },
        {
          "indexed": false,
          "internalType": "uint256",
          "name": "_price",
          "type": "uint256"
        }
      ],
      "name": "ListNFT",
      "type": "event"
    },
    {
      "anonymous": false,
      "inputs": [
        {
          "indexed": true,
          "internalType": "address",
          "name": "previousOwner",
          "type": "address"
        },
        {
          "indexed": true,
          "internalType": "address",
          "name": "newOwner",
          "type": "address"
        }
      ],
      "name": "OwnershipTransferred",
      "type": "event"
    },
    {
      "anonymous": false,
      "inputs": [
        {
          "indexed": false,
          "internalType": "contract IERC721Enumerable",
          "name": "_nft",
          "type": "address"
        }
      ],
      "name": "SetNFT",
      "type": "event"
    },
    {
      "anonymous": false,
      "inputs": [
        {
          "indexed": false,
          "internalType": "uint256",
          "name": "_tax",
          "type": "uint256"
        }
      ],
      "name": "SetTax",
      "type": "event"
    },
    {
      "anonymous": false,
      "inputs": [
        {
          "indexed": false,
          "internalType": "contract IERC20",
          "name": "_token",
          "type": "address"
        }
      ],
      "name": "SetToken",
      "type": "event"
    },
    {
      "anonymous": false,
      "inputs": [
        {
          "indexed": true,
          "internalType": "address",
          "name": "_from",
          "type": "address"
        },
        {
          "indexed": false,
          "internalType": "uint256",
          "name": "_tokenId",
          "type": "uint256"
        }
      ],
      "name": "UnlistNFT",
      "type": "event"
    },
    {
      "anonymous": false,
      "inputs": [
        {
          "indexed": false,
          "internalType": "uint256",
          "name": "_tokenId",
          "type": "uint256"
        },
        {
          "indexed": false,
          "internalType": "uint256",
          "name": "_price",
          "type": "uint256"
        }
      ],
      "name": "UpdateListingNFTPrice",
      "type": "event"
    },
    {
      "inputs": [
        {
          "internalType": "uint256",
          "name": "_tokenId",
          "type": "uint256"
        },
        {
          "internalType": "uint256",
          "name": "_price",
          "type": "uint256"
        }
      ],
      "name": "buyNft",
      "outputs": [],
      "stateMutability": "nonpayable",
      "type": "function"
    },
    {
      "inputs": [],
      "name": "getListedNft",
      "outputs": [
        {
          "components": [
            {
              "internalType": "address payable",
              "name": "author",
              "type": "address"
            },
            {
              "internalType": "uint256",
              "name": "price",
              "type": "uint256"
            },
            {
              "internalType": "uint256",
              "name": "tokenId",
              "type": "uint256"
            }
          ],
          "internalType": "struct Marketplace.ListDetail[]",
          "name": "",
          "type": "tuple[]"
        }
      ],
      "stateMutability": "view",
      "type": "function"
    },
    {
      "inputs": [
        {
          "internalType": "uint256",
          "name": "_tokenId",
          "type": "uint256"
        },
        {
          "internalType": "uint256",
          "name": "_price",
          "type": "uint256"
        }
      ],
      "name": "listNft",
      "outputs": [],
      "stateMutability": "nonpayable",
      "type": "function"
    },
    {
      "inputs": [
        {
          "internalType": "address",
          "name": "",
          "type": "address"
        },
        {
          "internalType": "address",
          "name": "",
          "type": "address"
        },
        {
          "internalType": "uint256",
          "name": "",
          "type": "uint256"
        },
        {
          "internalType": "bytes",
          "name": "",
          "type": "bytes"
        }
      ],
      "name": "onERC721Received",
      "outputs": [
        {
          "internalType": "bytes4",
          "name": "",
          "type": "bytes4"
        }
      ],
      "stateMutability": "pure",
      "type": "function"
    },
    {
      "inputs": [],
      "name": "owner",
      "outputs": [
        {
          "internalType": "address",
          "name": "",
          "type": "address"
        }
      ],
      "stateMutability": "view",
      "type": "function"
    },
    {
      "inputs": [],
      "name": "renounceOwnership",
      "outputs": [],
      "stateMutability": "nonpayable",
      "type": "function"
    },
    {
      "inputs": [
        {
          "internalType": "contract IERC721Enumerable",
          "name": "_nft",
          "type": "address"
        }
      ],
      "name": "setNft",
      "outputs": [],
      "stateMutability": "nonpayable",
      "type": "function"
    },
    {
      "inputs": [
        {
          "internalType": "uint256",
          "name": "_tax",
          "type": "uint256"
        }
      ],
      "name": "setTax",
      "outputs": [],
      "stateMutability": "nonpayable",
      "type": "function"
    },
    {
      "inputs": [
        {
          "internalType": "contract IERC20",
          "name": "_token",
          "type": "address"
        }
      ],
      "name": "setToken",
      "outputs": [],
      "stateMutability": "nonpayable",
      "type": "function"
    },
    {
      "inputs": [],
      "name": "tokenBalance",
      "outputs": [
        {
          "internalType": "uint256",
          "name": "",
          "type": "uint256"
        }
      ],
      "stateMutability": "view",
      "type": "function"
    },
    {
      "inputs": [
        {
          "internalType": "address",
          "name": "newOwner",
          "type": "address"
        }
      ],
      "name": "transferOwnership",
      "outputs": [],
      "stateMutability": "nonpayable",
      "type": "function"
    },
    {
      "inputs": [
        {
          "internalType": "uint256",
          "name": "_tokenId",
          "type": "uint256"
        }
      ],
      "name": "unlistNft",
      "outputs": [],
      "stateMutability": "nonpayable",
      "type": "function"
    },
    {
      "inputs": [
        {
          "internalType": "uint256",
          "name": "_tokenId",
          "type": "uint256"
        },
        {
          "internalType": "uint256",
          "name": "_price",
          "type": "uint256"
        }
      ],
      "name": "updateListingNftPrice",
      "outputs": [],
      "stateMutability": "nonpayable",
      "type": "function"
    },
    {
      "inputs": [],
      "name": "withdraw",
      "outputs": [],
      "stateMutability": "nonpayable",
      "type": "function"
    },
    {
      "inputs": [],
      "name": "withdrawErc20",
      "outputs": [],
      "stateMutability": "nonpayable",
      "type": "function"
    },
    {
      "inputs": [
        {
          "internalType": "uint256",
          "name": "amount",
          "type": "uint256"
        }
      ],
      "name": "withdrawToken",
      "outputs": [],
      "stateMutability": "nonpayable",
      "type": "function"
    }
  ],
  "bytecode": "0x608060405260056003553480156200001657600080fd5b50604051620030313803806200303183398181016040528101906200003c919062000275565b6200005c62000050620000e660201b60201c565b620000ee60201b60201c565b80600160006101000a81548173ffffffffffffffffffffffffffffffffffffffff021916908373ffffffffffffffffffffffffffffffffffffffff16021790555081600260006101000a81548173ffffffffffffffffffffffffffffffffffffffff021916908373ffffffffffffffffffffffffffffffffffffffff1602179055505050620002bc565b600033905090565b60008060009054906101000a900473ffffffffffffffffffffffffffffffffffffffff169050816000806101000a81548173ffffffffffffffffffffffffffffffffffffffff021916908373ffffffffffffffffffffffffffffffffffffffff1602179055508173ffffffffffffffffffffffffffffffffffffffff168173ffffffffffffffffffffffffffffffffffffffff167f8be0079c531659141344cd1fd0a4f28419497f9722a3daafe3b4186f6b6457e060405160405180910390a35050565b600080fd5b600073ffffffffffffffffffffffffffffffffffffffff82169050919050565b6000620001e482620001b7565b9050919050565b6000620001f882620001d7565b9050919050565b6200020a81620001eb565b81146200021657600080fd5b50565b6000815190506200022a81620001ff565b92915050565b60006200023d82620001d7565b9050919050565b6200024f8162000230565b81146200025b57600080fd5b50565b6000815190506200026f8162000244565b92915050565b600080604083850312156200028f576200028e620001b2565b5b60006200029f8582860162000219565b9250506020620002b2858286016200025e565b9150509250929050565b612d6580620002cc6000396000f3fe608060405234801561001057600080fd5b50600436106101005760003560e01c8063715018a6116100975780639e75689c116100665780639e75689c14610239578063f2fde38b14610255578063f3c1338714610271578063fe8723e11461028d57610100565b8063715018a6146101d55780637a53fde6146101df5780638da5cb5b146101fd5780639e1a4d191461021b57610100565b80633e3f2359116100d35780633e3f23591461017757806350baa62214610181578063516468691461019d578063556f8084146101b957610100565b8063144fa6d714610105578063150b7a02146101215780632e5bb6ff146101515780633ccfd60b1461016d575b600080fd5b61011f600480360381019061011a9190611d1d565b6102a9565b005b61013b60048036038101906101369190611e11565b61032c565b6040516101489190611ed4565b60405180910390f35b61016b60048036038101906101669190611eef565b61035a565b005b6101756103a3565b005b61017f6103f4565b005b61019b60048036038101906101969190611eef565b61053a565b005b6101b760048036038101906101b29190611f1c565b6106c4565b005b6101d360048036038101906101ce9190611f1c565b6108c9565b005b6101dd610d18565b005b6101e7610d2c565b6040516101f4919061207d565b60405180910390f35b610205610f90565b60405161021291906120ae565b60405180910390f35b610223610fb9565b60405161023091906120d8565b60405180910390f35b610253600480360381019061024e9190611eef565b611064565b005b61026f600480360381019061026a91906120f3565b611366565b005b61028b6004803603810190610286919061215e565b6113e9565b005b6102a760048036038101906102a29190611f1c565b61146c565b005b6102b1611805565b80600260006101000a81548173ffffffffffffffffffffffffffffffffffffffff021916908373ffffffffffffffffffffffffffffffffffffffff1602179055507fefc1fd16ea80a922086ee4e995739d59b025c1bcea6d1f67855747480c83214b8160405161032191906121ea565b60405180910390a150565b60007f150b7a023d4804d13e8c85fb27262cb750cf6ba9f9dd3bb30d90f482ceeb4b1f905095945050505050565b610362611805565b806003819055507f9fa979502e438dac613eeda5e69bdaf59a326dc09969a480e1e19078b24e15d18160405161039891906120d8565b60405180910390a150565b6103ab611805565b3373ffffffffffffffffffffffffffffffffffffffff166108fc479081150290604051600060405180830381858888f193505050501580156103f1573d6000803e3d6000fd5b50565b6103fc611805565b600260009054906101000a900473ffffffffffffffffffffffffffffffffffffffff1673ffffffffffffffffffffffffffffffffffffffff1663a9059cbb33600260009054906101000a900473ffffffffffffffffffffffffffffffffffffffff1673ffffffffffffffffffffffffffffffffffffffff166370a08231306040518263ffffffff1660e01b815260040161049691906120ae565b602060405180830381865afa1580156104b3573d6000803e3d6000fd5b505050506040513d601f19601f820116820180604052508101906104d7919061221a565b6040518363ffffffff1660e01b81526004016104f4929190612247565b6020604051808303816000875af1158015610513573d6000803e3d6000fd5b505050506040513d601f19601f8201168201806040525081019061053791906122a8565b50565b610542611805565b80600260009054906101000a900473ffffffffffffffffffffffffffffffffffffffff1673ffffffffffffffffffffffffffffffffffffffff166370a08231306040518263ffffffff1660e01b815260040161059e91906120ae565b602060405180830381865afa1580156105bb573d6000803e3d6000fd5b505050506040513d601f19601f820116820180604052508101906105df919061221a565b1015610620576040517f08c379a000000000000000000000000000000000000000000000000000000000815260040161061790612332565b60405180910390fd5b600260009054906101000a900473ffffffffffffffffffffffffffffffffffffffff1673ffffffffffffffffffffffffffffffffffffffff1663a9059cbb33836040518363ffffffff1660e01b815260040161067d929190612247565b6020604051808303816000875af115801561069c573d6000803e3d6000fd5b505050506040513d601f19601f820116820180604052508101906106c091906122a8565b5050565b3073ffffffffffffffffffffffffffffffffffffffff16600160009054906101000a900473ffffffffffffffffffffffffffffffffffffffff1673ffffffffffffffffffffffffffffffffffffffff16636352211e846040518263ffffffff1660e01b815260040161073691906120d8565b602060405180830381865afa158015610753573d6000803e3d6000fd5b505050506040513d601f19601f820116820180604052508101906107779190612367565b73ffffffffffffffffffffffffffffffffffffffff16146107cd576040517f08c379a00000000000000000000000000000000000000000000000000000000081526004016107c490612406565b60405180910390fd5b3373ffffffffffffffffffffffffffffffffffffffff166004600084815260200190815260200160002060000160009054906101000a900473ffffffffffffffffffffffffffffffffffffffff1673ffffffffffffffffffffffffffffffffffffffff1614610871576040517f08c379a000000000000000000000000000000000000000000000000000000000815260040161086890612498565b60405180910390fd5b8060046000848152602001908152602001600020600101819055507fc7113691cf96332a4c71d0e3d8fc13f177dc22111131519552cd24a04fde1e5c82826040516108bd9291906124b8565b60405180910390a15050565b80600260009054906101000a900473ffffffffffffffffffffffffffffffffffffffff1673ffffffffffffffffffffffffffffffffffffffff166370a08231336040518263ffffffff1660e01b815260040161092591906120ae565b602060405180830381865afa158015610942573d6000803e3d6000fd5b505050506040513d601f19601f82011682018060405250810190610966919061221a565b10156109a7576040517f08c379a000000000000000000000000000000000000000000000000000000000815260040161099e90612332565b60405180910390fd5b3073ffffffffffffffffffffffffffffffffffffffff16600160009054906101000a900473ffffffffffffffffffffffffffffffffffffffff1673ffffffffffffffffffffffffffffffffffffffff16636352211e846040518263ffffffff1660e01b8152600401610a1991906120d8565b602060405180830381865afa158015610a36573d6000803e3d6000fd5b505050506040513d601f19601f82011682018060405250810190610a5a9190612367565b73ffffffffffffffffffffffffffffffffffffffff1614610ab0576040517f08c379a0000000000000000000000000000000000000000000000000000000008152600401610aa790612406565b60405180910390fd5b8060046000848152602001908152602001600020600101541115610b09576040517f08c379a0000000000000000000000000000000000000000000000000000000008152600401610b0090612553565b60405180910390fd5b610b37600260009054906101000a900473ffffffffffffffffffffffffffffffffffffffff16333084611883565b600260009054906101000a900473ffffffffffffffffffffffffffffffffffffffff1673ffffffffffffffffffffffffffffffffffffffff1663a9059cbb6004600085815260200190815260200160002060000160009054906101000a900473ffffffffffffffffffffffffffffffffffffffff1660646003546064610bbd91906125a2565b85610bc891906125d6565b610bd29190612647565b6040518363ffffffff1660e01b8152600401610bef929190612699565b6020604051808303816000875af1158015610c0e573d6000803e3d6000fd5b505050506040513d601f19601f82011682018060405250810190610c3291906122a8565b50600160009054906101000a900473ffffffffffffffffffffffffffffffffffffffff1673ffffffffffffffffffffffffffffffffffffffff166342842e0e3033856040518463ffffffff1660e01b8152600401610c92939291906126c2565b600060405180830381600087803b158015610cac57600080fd5b505af1158015610cc0573d6000803e3d6000fd5b505050503373ffffffffffffffffffffffffffffffffffffffff167f5d963241241cfe9e161d13500d628058954b3febfde03e4b1f4071370e72fe2b8383604051610d0c9291906124b8565b60405180910390a25050565b610d20611805565b610d2a600061190c565b565b60606000600160009054906101000a900473ffffffffffffffffffffffffffffffffffffffff1673ffffffffffffffffffffffffffffffffffffffff166370a08231306040518263ffffffff1660e01b8152600401610d8b91906120ae565b602060405180830381865afa158015610da8573d6000803e3d6000fd5b505050506040513d601f19601f82011682018060405250810190610dcc919061221a565b905060008167ffffffffffffffff811115610dea57610de96126f9565b5b604051908082528060200260200182016040528015610e2357816020015b610e10611c6c565b815260200190600190039081610e085790505b50905060005b82811015610f875760046000600160009054906101000a900473ffffffffffffffffffffffffffffffffffffffff1673ffffffffffffffffffffffffffffffffffffffff16632f745c5930856040518363ffffffff1660e01b8152600401610e92929190612247565b602060405180830381865afa158015610eaf573d6000803e3d6000fd5b505050506040513d601f19601f82011682018060405250810190610ed3919061221a565b81526020019081526020016000206040518060600160405290816000820160009054906101000a900473ffffffffffffffffffffffffffffffffffffffff1673ffffffffffffffffffffffffffffffffffffffff1673ffffffffffffffffffffffffffffffffffffffff16815260200160018201548152602001600282015481525050828281518110610f6957610f68612728565b5b60200260200101819052508080610f7f90612757565b915050610e29565b50809250505090565b60008060009054906101000a900473ffffffffffffffffffffffffffffffffffffffff16905090565b6000610fc3611805565b600260009054906101000a900473ffffffffffffffffffffffffffffffffffffffff1673ffffffffffffffffffffffffffffffffffffffff166370a08231306040518263ffffffff1660e01b815260040161101e91906120ae565b602060405180830381865afa15801561103b573d6000803e3d6000fd5b505050506040513d601f19601f8201168201806040525081019061105f919061221a565b905090565b3073ffffffffffffffffffffffffffffffffffffffff16600160009054906101000a900473ffffffffffffffffffffffffffffffffffffffff1673ffffffffffffffffffffffffffffffffffffffff16636352211e836040518263ffffffff1660e01b81526004016110d691906120d8565b602060405180830381865afa1580156110f3573d6000803e3d6000fd5b505050506040513d601f19601f820116820180604052508101906111179190612367565b73ffffffffffffffffffffffffffffffffffffffff161461116d576040517f08c379a000000000000000000000000000000000000000000000000000000000815260040161116490612406565b60405180910390fd5b3373ffffffffffffffffffffffffffffffffffffffff166004600083815260200190815260200160002060000160009054906101000a900473ffffffffffffffffffffffffffffffffffffffff1673ffffffffffffffffffffffffffffffffffffffff16148061120f57503373ffffffffffffffffffffffffffffffffffffffff166111f7610f90565b73ffffffffffffffffffffffffffffffffffffffff16145b61124e576040517f08c379a0000000000000000000000000000000000000000000000000000000008152600401611245906127eb565b60405180910390fd5b600160009054906101000a900473ffffffffffffffffffffffffffffffffffffffff1673ffffffffffffffffffffffffffffffffffffffff166342842e0e306004600085815260200190815260200160002060000160009054906101000a900473ffffffffffffffffffffffffffffffffffffffff16846040518463ffffffff1660e01b81526004016112e39392919061280b565b600060405180830381600087803b1580156112fd57600080fd5b505af1158015611311573d6000803e3d6000fd5b505050503373ffffffffffffffffffffffffffffffffffffffff167f995270fd4f93cea033cdf0da430f296d82414eb9a7d99b6b391bb3e8a1ee9fc28260405161135b91906120d8565b60405180910390a250565b61136e611805565b600073ffffffffffffffffffffffffffffffffffffffff168173ffffffffffffffffffffffffffffffffffffffff16036113dd576040517f08c379a00000000000000000000000000000000000000000000000000000000081526004016113d4906128b4565b60405180910390fd5b6113e68161190c565b50565b6113f1611805565b80600160006101000a81548173ffffffffffffffffffffffffffffffffffffffff021916908373ffffffffffffffffffffffffffffffffffffffff1602179055507ff8525b9383ba5cc1b196c9a879bcbe7911913876aaff159ec424e1bb6136fff28160405161146191906128f5565b60405180910390a150565b3373ffffffffffffffffffffffffffffffffffffffff16600160009054906101000a900473ffffffffffffffffffffffffffffffffffffffff1673ffffffffffffffffffffffffffffffffffffffff16636352211e846040518263ffffffff1660e01b81526004016114de91906120d8565b602060405180830381865afa1580156114fb573d6000803e3d6000fd5b505050506040513d601f19601f8201168201806040525081019061151f9190612367565b73ffffffffffffffffffffffffffffffffffffffff1614611575576040517f08c379a000000000000000000000000000000000000000000000000000000000815260040161156c90612982565b60405180910390fd5b3073ffffffffffffffffffffffffffffffffffffffff16600160009054906101000a900473ffffffffffffffffffffffffffffffffffffffff1673ffffffffffffffffffffffffffffffffffffffff1663081812fc846040518263ffffffff1660e01b81526004016115e791906120d8565b602060405180830381865afa158015611604573d6000803e3d6000fd5b505050506040513d601f19601f820116820180604052508101906116289190612367565b73ffffffffffffffffffffffffffffffffffffffff161461167e576040517f08c379a000000000000000000000000000000000000000000000000000000000815260040161167590612a14565b60405180910390fd5b60405180606001604052803373ffffffffffffffffffffffffffffffffffffffff168152602001828152602001838152506004600084815260200190815260200160002060008201518160000160006101000a81548173ffffffffffffffffffffffffffffffffffffffff021916908373ffffffffffffffffffffffffffffffffffffffff1602179055506020820151816001015560408201518160020155905050600160009054906101000a900473ffffffffffffffffffffffffffffffffffffffff1673ffffffffffffffffffffffffffffffffffffffff166342842e0e3330856040518463ffffffff1660e01b815260040161177f939291906126c2565b600060405180830381600087803b15801561179957600080fd5b505af11580156117ad573d6000803e3d6000fd5b505050503373ffffffffffffffffffffffffffffffffffffffff167f6cd52e2afd4c9fdb90f6226975fb688c697f05f2c4306f5bff7ea8cd941ed7ce83836040516117f99291906124b8565b60405180910390a25050565b61180d6119d0565b73ffffffffffffffffffffffffffffffffffffffff1661182b610f90565b73ffffffffffffffffffffffffffffffffffffffff1614611881576040517f08c379a000000000000000000000000000000000000000000000000000000000815260040161187890612a80565b60405180910390fd5b565b611906846323b872dd60e01b8585856040516024016118a4939291906126c2565b604051602081830303815290604052907bffffffffffffffffffffffffffffffffffffffffffffffffffffffff19166020820180517bffffffffffffffffffffffffffffffffffffffffffffffffffffffff83818316178352505050506119d8565b50505050565b60008060009054906101000a900473ffffffffffffffffffffffffffffffffffffffff169050816000806101000a81548173ffffffffffffffffffffffffffffffffffffffff021916908373ffffffffffffffffffffffffffffffffffffffff1602179055508173ffffffffffffffffffffffffffffffffffffffff168173ffffffffffffffffffffffffffffffffffffffff167f8be0079c531659141344cd1fd0a4f28419497f9722a3daafe3b4186f6b6457e060405160405180910390a35050565b600033905090565b6000611a3a826040518060400160405280602081526020017f5361666545524332303a206c6f772d6c6576656c2063616c6c206661696c65648152508573ffffffffffffffffffffffffffffffffffffffff16611a9f9092919063ffffffff16565b9050600081511115611a9a5780806020019051810190611a5a91906122a8565b611a99576040517f08c379a0000000000000000000000000000000000000000000000000000000008152600401611a9090612b12565b60405180910390fd5b5b505050565b6060611aae8484600085611ab7565b90509392505050565b606082471015611afc576040517f08c379a0000000000000000000000000000000000000000000000000000000008152600401611af390612ba4565b60405180910390fd5b6000808673ffffffffffffffffffffffffffffffffffffffff168587604051611b259190612c35565b60006040518083038185875af1925050503d8060008114611b62576040519150601f19603f3d011682016040523d82523d6000602084013e611b67565b606091505b5091509150611b7887838387611b84565b92505050949350505050565b60608315611be6576000835103611bde57611b9e85611bf9565b611bdd576040517f08c379a0000000000000000000000000000000000000000000000000000000008152600401611bd490612c98565b60405180910390fd5b5b829050611bf1565b611bf08383611c1c565b5b949350505050565b6000808273ffffffffffffffffffffffffffffffffffffffff163b119050919050565b600082511115611c2f5781518083602001fd5b806040517f08c379a0000000000000000000000000000000000000000000000000000000008152600401611c639190612d0d565b60405180910390fd5b6040518060600160405280600073ffffffffffffffffffffffffffffffffffffffff16815260200160008152602001600081525090565b600080fd5b600080fd5b600073ffffffffffffffffffffffffffffffffffffffff82169050919050565b6000611cd882611cad565b9050919050565b6000611cea82611ccd565b9050919050565b611cfa81611cdf565b8114611d0557600080fd5b50565b600081359050611d1781611cf1565b92915050565b600060208284031215611d3357611d32611ca3565b5b6000611d4184828501611d08565b91505092915050565b611d5381611ccd565b8114611d5e57600080fd5b50565b600081359050611d7081611d4a565b92915050565b6000819050919050565b611d8981611d76565b8114611d9457600080fd5b50565b600081359050611da681611d80565b92915050565b600080fd5b600080fd5b600080fd5b60008083601f840112611dd157611dd0611dac565b5b8235905067ffffffffffffffff811115611dee57611ded611db1565b5b602083019150836001820283011115611e0a57611e09611db6565b5b9250929050565b600080600080600060808688031215611e2d57611e2c611ca3565b5b6000611e3b88828901611d61565b9550506020611e4c88828901611d61565b9450506040611e5d88828901611d97565b935050606086013567ffffffffffffffff811115611e7e57611e7d611ca8565b5b611e8a88828901611dbb565b92509250509295509295909350565b60007fffffffff0000000000000000000000000000000000000000000000000000000082169050919050565b611ece81611e99565b82525050565b6000602082019050611ee96000830184611ec5565b92915050565b600060208284031215611f0557611f04611ca3565b5b6000611f1384828501611d97565b91505092915050565b60008060408385031215611f3357611f32611ca3565b5b6000611f4185828601611d97565b9250506020611f5285828601611d97565b9150509250929050565b600081519050919050565b600082825260208201905092915050565b6000819050602082019050919050565b6000611f9382611cad565b9050919050565b611fa381611f88565b82525050565b611fb281611d76565b82525050565b606082016000820151611fce6000850182611f9a565b506020820151611fe16020850182611fa9565b506040820151611ff46040850182611fa9565b50505050565b60006120068383611fb8565b60608301905092915050565b6000602082019050919050565b600061202a82611f5c565b6120348185611f67565b935061203f83611f78565b8060005b838110156120705781516120578882611ffa565b975061206283612012565b925050600181019050612043565b5085935050505092915050565b60006020820190508181036000830152612097818461201f565b905092915050565b6120a881611ccd565b82525050565b60006020820190506120c3600083018461209f565b92915050565b6120d281611d76565b82525050565b60006020820190506120ed60008301846120c9565b92915050565b60006020828403121561210957612108611ca3565b5b600061211784828501611d61565b91505092915050565b600061212b82611ccd565b9050919050565b61213b81612120565b811461214657600080fd5b50565b60008135905061215881612132565b92915050565b60006020828403121561217457612173611ca3565b5b600061218284828501612149565b91505092915050565b6000819050919050565b60006121b06121ab6121a684611cad565b61218b565b611cad565b9050919050565b60006121c282612195565b9050919050565b60006121d4826121b7565b9050919050565b6121e4816121c9565b82525050565b60006020820190506121ff60008301846121db565b92915050565b60008151905061221481611d80565b92915050565b6000602082840312156122305761222f611ca3565b5b600061223e84828501612205565b91505092915050565b600060408201905061225c600083018561209f565b61226960208301846120c9565b9392505050565b60008115159050919050565b61228581612270565b811461229057600080fd5b50565b6000815190506122a28161227c565b92915050565b6000602082840312156122be576122bd611ca3565b5b60006122cc84828501612293565b91505092915050565b600082825260208201905092915050565b7f496e73756666696369656e74206163636f756e742062616c616e636500000000600082015250565b600061231c601c836122d5565b9150612327826122e6565b602082019050919050565b6000602082019050818103600083015261234b8161230f565b9050919050565b60008151905061236181611d4a565b92915050565b60006020828403121561237d5761237c611ca3565b5b600061238b84828501612352565b91505092915050565b7f54686973204e465420646f65736e2774206578697374206f6e206d61726b657460008201527f706c616365000000000000000000000000000000000000000000000000000000602082015250565b60006123f06025836122d5565b91506123fb82612394565b604082019050919050565b6000602082019050818103600083015261241f816123e3565b9050919050565b7f4f6e6c79206f776e65722063616e20757064617465207072696365206f66207460008201527f686973204e465400000000000000000000000000000000000000000000000000602082015250565b60006124826027836122d5565b915061248d82612426565b604082019050919050565b600060208201905081810360008301526124b181612475565b9050919050565b60006040820190506124cd60008301856120c9565b6124da60208301846120c9565b9392505050565b7f4d696e696d756d20707269636520686173206e6f74206265656e20726561636860008201527f6564000000000000000000000000000000000000000000000000000000000000602082015250565b600061253d6022836122d5565b9150612548826124e1565b604082019050919050565b6000602082019050818103600083015261256c81612530565b9050919050565b7f4e487b7100000000000000000000000000000000000000000000000000000000600052601160045260246000fd5b60006125ad82611d76565b91506125b883611d76565b92508282039050818111156125d0576125cf612573565b5b92915050565b60006125e182611d76565b91506125ec83611d76565b92508282026125fa81611d76565b9150828204841483151761261157612610612573565b5b5092915050565b7f4e487b7100000000000000000000000000000000000000000000000000000000600052601260045260246000fd5b600061265282611d76565b915061265d83611d76565b92508261266d5761266c612618565b5b828204905092915050565b6000612683826121b7565b9050919050565b61269381612678565b82525050565b60006040820190506126ae600083018561268a565b6126bb60208301846120c9565b9392505050565b60006060820190506126d7600083018661209f565b6126e4602083018561209f565b6126f160408301846120c9565b949350505050565b7f4e487b7100000000000000000000000000000000000000000000000000000000600052604160045260246000fd5b7f4e487b7100000000000000000000000000000000000000000000000000000000600052603260045260246000fd5b600061276282611d76565b91507fffffffffffffffffffffffffffffffffffffffffffffffffffffffffffffffff820361279457612793612573565b5b600182019050919050565b7f4f6e6c79206f776e65722063616e20756e6c6973742074686973204e46540000600082015250565b60006127d5601e836122d5565b91506127e08261279f565b602082019050919050565b60006020820190508181036000830152612804816127c8565b9050919050565b6000606082019050612820600083018661209f565b61282d602083018561268a565b61283a60408301846120c9565b949350505050565b7f4f776e61626c653a206e6577206f776e657220697320746865207a65726f206160008201527f6464726573730000000000000000000000000000000000000000000000000000602082015250565b600061289e6026836122d5565b91506128a982612842565b604082019050919050565b600060208201905081810360008301526128cd81612891565b9050919050565b60006128df826121b7565b9050919050565b6128ef816128d4565b82525050565b600060208201905061290a60008301846128e6565b92915050565b7f596f7520617265206e6f7420746865206f776e6572206f662074686973204e4660008201527f5400000000000000000000000000000000000000000000000000000000000000602082015250565b600061296c6021836122d5565b915061297782612910565b604082019050919050565b6000602082019050818103600083015261299b8161295f565b9050919050565b7f4d61726b6574706c616365206973206e6f7420617070726f76656420746f207460008201527f72616e736665722074686973204e465400000000000000000000000000000000602082015250565b60006129fe6030836122d5565b9150612a09826129a2565b604082019050919050565b60006020820190508181036000830152612a2d816129f1565b9050919050565b7f4f776e61626c653a2063616c6c6572206973206e6f7420746865206f776e6572600082015250565b6000612a6a6020836122d5565b9150612a7582612a34565b602082019050919050565b60006020820190508181036000830152612a9981612a5d565b9050919050565b7f5361666545524332303a204552433230206f7065726174696f6e20646964206e60008201527f6f74207375636365656400000000000000000000000000000000000000000000602082015250565b6000612afc602a836122d5565b9150612b0782612aa0565b604082019050919050565b60006020820190508181036000830152612b2b81612aef565b9050919050565b7f416464726573733a20696e73756666696369656e742062616c616e636520666f60008201527f722063616c6c0000000000000000000000000000000000000000000000000000602082015250565b6000612b8e6026836122d5565b9150612b9982612b32565b604082019050919050565b60006020820190508181036000830152612bbd81612b81565b9050919050565b600081519050919050565b600081905092915050565b60005b83811015612bf8578082015181840152602081019050612bdd565b60008484015250505050565b6000612c0f82612bc4565b612c198185612bcf565b9350612c29818560208601612bda565b80840191505092915050565b6000612c418284612c04565b915081905092915050565b7f416464726573733a2063616c6c20746f206e6f6e2d636f6e7472616374000000600082015250565b6000612c82601d836122d5565b9150612c8d82612c4c565b602082019050919050565b60006020820190508181036000830152612cb181612c75565b9050919050565b600081519050919050565b6000601f19601f8301169050919050565b6000612cdf82612cb8565b612ce981856122d5565b9350612cf9818560208601612bda565b612d0281612cc3565b840191505092915050565b60006020820190508181036000830152612d278184612cd4565b90509291505056fea264697066735822122072de7e3e53a6778fd57269dbe316f8c0476563511ad5b4dccb1bd3489ff93d8564736f6c63430008110033",
  "linkReferences": {},
  "deployedLinkReferences": {}
}