{
  "_format": "hh-sol-artifact-1",
  "contractName": "ESDC_token",
  "sourceName": "contracts/ESDC_token.sol",
  "abi": [
    {
      "inputs": [],
      "stateMutability": "nonpayable",
      "type": "constructor"
    },
    {
      "anonymous": false,
      "inputs": [
        {
          "indexed": true,
          "internalType": "address",
          "name": "owner",
          "type": "address"
        },
        {
          "indexed": true,
          "internalType": "address",
          "name": "spender",
          "type": "address"
        },
        {
          "indexed": false,
          "internalType": "uint256",
          "name": "value",
          "type": "uint256"
        }
      ],
      "name": "Approval",
      "type": "event"
    },
    {
      "anonymous": false,
      "inputs": [
        {
          "indexed": true,
          "internalType": "address",
          "name": "previousOwner",
          "type": "address"
        },
        {
          "indexed": true,
          "internalType": "address",
          "name": "newOwner",
          "type": "address"
        }
      ],
      "name": "OwnershipTransferred",
      "type": "event"
    },
    {
      "anonymous": false,
      "inputs": [
        {
          "indexed": true,
          "internalType": "address",
          "name": "from",
          "type": "address"
        },
        {
          "indexed": true,
          "internalType": "address",
          "name": "to",
          "type": "address"
        },
        {
          "indexed": false,
          "internalType": "uint256",
          "name": "value",
          "type": "uint256"
        }
      ],
      "name": "Transfer",
      "type": "event"
    },
    {
      "inputs": [
        {
          "internalType": "address",
          "name": "owner",
          "type": "address"
        },
        {
          "internalType": "address",
          "name": "spender",
          "type": "address"
        }
      ],
      "name": "allowance",
      "outputs": [
        {
          "internalType": "uint256",
          "name": "",
          "type": "uint256"
        }
      ],
      "stateMutability": "view",
      "type": "function"
    },
    {
      "inputs": [
        {
          "internalType": "address",
          "name": "spender",
          "type": "address"
        },
        {
          "internalType": "uint256",
          "name": "amount",
          "type": "uint256"
        }
      ],
      "name": "approve",
      "outputs": [
        {
          "internalType": "bool",
          "name": "",
          "type": "bool"
        }
      ],
      "stateMutability": "nonpayable",
      "type": "function"
    },
    {
      "inputs": [
        {
          "internalType": "address",
          "name": "account",
          "type": "address"
        }
      ],
      "name": "balanceOf",
      "outputs": [
        {
          "internalType": "uint256",
          "name": "",
          "type": "uint256"
        }
      ],
      "stateMutability": "view",
      "type": "function"
    },
    {
      "inputs": [
        {
          "internalType": "uint256",
          "name": "amount",
          "type": "uint256"
        }
      ],
      "name": "burn",
      "outputs": [],
      "stateMutability": "nonpayable",
      "type": "function"
    },
    {
      "inputs": [
        {
          "internalType": "address",
          "name": "account",
          "type": "address"
        },
        {
          "internalType": "uint256",
          "name": "amount",
          "type": "uint256"
        }
      ],
      "name": "burnFrom",
      "outputs": [],
      "stateMutability": "nonpayable",
      "type": "function"
    },
    {
      "inputs": [],
      "name": "decimals",
      "outputs": [
        {
          "internalType": "uint8",
          "name": "",
          "type": "uint8"
        }
      ],
      "stateMutability": "view",
      "type": "function"
    },
    {
      "inputs": [
        {
          "internalType": "address",
          "name": "spender",
          "type": "address"
        },
        {
          "internalType": "uint256",
          "name": "subtractedValue",
          "type": "uint256"
        }
      ],
      "name": "decreaseAllowance",
      "outputs": [
        {
          "internalType": "bool",
          "name": "",
          "type": "bool"
        }
      ],
      "stateMutability": "nonpayable",
      "type": "function"
    },
    {
      "inputs": [
        {
          "internalType": "address",
          "name": "spender",
          "type": "address"
        },
        {
          "internalType": "uint256",
          "name": "addedValue",
          "type": "uint256"
        }
      ],
      "name": "increaseAllowance",
      "outputs": [
        {
          "internalType": "bool",
          "name": "",
          "type": "bool"
        }
      ],
      "stateMutability": "nonpayable",
      "type": "function"
    },
    {
      "inputs": [
        {
          "internalType": "address",
          "name": "to",
          "type": "address"
        },
        {
          "internalType": "uint256",
          "name": "amount",
          "type": "uint256"
        }
      ],
      "name": "mint",
      "outputs": [],
      "stateMutability": "nonpayable",
      "type": "function"
    },
    {
      "inputs": [],
      "name": "name",
      "outputs": [
        {
          "internalType": "string",
          "name": "",
          "type": "string"
        }
      ],
      "stateMutability": "view",
      "type": "function"
    },
    {
      "inputs": [],
      "name": "owner",
      "outputs": [
        {
          "internalType": "address",
          "name": "",
          "type": "address"
        }
      ],
      "stateMutability": "view",
      "type": "function"
    },
    {
      "inputs": [],
      "name": "renounceOwnership",
      "outputs": [],
      "stateMutability": "nonpayable",
      "type": "function"
    },
    {
      "inputs": [],
      "name": "symbol",
      "outputs": [
        {
          "internalType": "string",
          "name": "",
          "type": "string"
        }
      ],
      "stateMutability": "view",
      "type": "function"
    },
    {
      "inputs": [],
      "name": "totalSupply",
      "outputs": [
        {
          "internalType": "uint256",
          "name": "",
          "type": "uint256"
        }
      ],
      "stateMutability": "view",
      "type": "function"
    },
    {
      "inputs": [
        {
          "internalType": "address",
          "name": "to",
          "type": "address"
        },
        {
          "internalType": "uint256",
          "name": "amount",
          "type": "uint256"
        }
      ],
      "name": "transfer",
      "outputs": [
        {
          "internalType": "bool",
          "name": "",
          "type": "bool"
        }
      ],
      "stateMutability": "nonpayable",
      "type": "function"
    },
    {
      "inputs": [
        {
          "internalType": "address",
          "name": "from",
          "type": "address"
        },
        {
          "internalType": "address",
          "name": "to",
          "type": "address"
        },
        {
          "internalType": "uint256",
          "name": "amount",
          "type": "uint256"
        }
      ],
      "name": "transferFrom",
      "outputs": [
        {
          "internalType": "bool",
          "name": "",
          "type": "bool"
        }
      ],
      "stateMutability": "nonpayable",
      "type": "function"
    },
    {
      "inputs": [
        {
          "internalType": "address",
          "name": "newOwner",
          "type": "address"
        }
      ],
      "name": "transferOwnership",
      "outputs": [],
      "stateMutability": "nonpayable",
      "type": "function"
    }
  ],
  "bytecode": "0x60806040526012600a62000014919062000751565b640ba43b7400620000269190620007a2565b6006553480156200003657600080fd5b506040518060400160405280600a81526020017f455344435f746f6b656e000000000000000000000000000000000000000000008152506040518060400160405280600481526020017f45534443000000000000000000000000000000000000000000000000000000008152508160039081620000b4919062000a5d565b508060049081620000c6919062000a5d565b505050620000e9620000dd6200016360201b60201c565b6200016b60201b60201c565b620001386040518060400160405280601481526020017f6f776e65723a202573206d61786361703a202573000000000000000000000000815250336006546200023160201b620009571760201c565b6200014c33600654620002da60201b60201c565b6200015d336200045260201b60201c565b62000e41565b600033905090565b6000600560009054906101000a900473ffffffffffffffffffffffffffffffffffffffff16905081600560006101000a81548173ffffffffffffffffffffffffffffffffffffffff021916908373ffffffffffffffffffffffffffffffffffffffff1602179055508173ffffffffffffffffffffffffffffffffffffffff168173ffffffffffffffffffffffffffffffffffffffff167f8be0079c531659141344cd1fd0a4f28419497f9722a3daafe3b4186f6b6457e060405160405180910390a35050565b620002d58383836040516024016200024c9392919062000c29565b6040516020818303038152906040527f0d26b925000000000000000000000000000000000000000000000000000000007bffffffffffffffffffffffffffffffffffffffffffffffffffffffff19166020820180517bffffffffffffffffffffffffffffffffffffffffffffffffffffffff83818316178352505050506200056760201b60201c565b505050565b600073ffffffffffffffffffffffffffffffffffffffff168273ffffffffffffffffffffffffffffffffffffffff16036200034c576040517f08c379a0000000000000000000000000000000000000000000000000000000008152600401620003439062000cbd565b60405180910390fd5b62000360600083836200059060201b60201c565b806002600082825462000374919062000cdf565b92505081905550806000808473ffffffffffffffffffffffffffffffffffffffff1673ffffffffffffffffffffffffffffffffffffffff1681526020019081526020016000206000828254620003cb919062000cdf565b925050819055508173ffffffffffffffffffffffffffffffffffffffff16600073ffffffffffffffffffffffffffffffffffffffff167fddf252ad1be2c89b69c2b068fc378daa952ba7f163c4a11628f55a4df523b3ef8360405162000432919062000d1a565b60405180910390a36200044e600083836200059560201b60201c565b5050565b620004626200016360201b60201c565b73ffffffffffffffffffffffffffffffffffffffff16620004886200059a60201b60201c565b73ffffffffffffffffffffffffffffffffffffffff1614620004e1576040517f08c379a0000000000000000000000000000000000000000000000000000000008152600401620004d89062000d87565b60405180910390fd5b600073ffffffffffffffffffffffffffffffffffffffff168173ffffffffffffffffffffffffffffffffffffffff160362000553576040517f08c379a00000000000000000000000000000000000000000000000000000000081526004016200054a9062000e1f565b60405180910390fd5b62000564816200016b60201b60201c565b50565b60008151905060006a636f6e736f6c652e6c6f679050602083016000808483855afa5050505050565b505050565b505050565b6000600560009054906101000a900473ffffffffffffffffffffffffffffffffffffffff16905090565b7f4e487b7100000000000000000000000000000000000000000000000000000000600052601160045260246000fd5b60008160011c9050919050565b6000808291508390505b600185111562000652578086048111156200062a5762000629620005c4565b5b60018516156200063a5780820291505b80810290506200064a85620005f3565b94506200060a565b94509492505050565b6000826200066d576001905062000740565b816200067d576000905062000740565b8160018114620006965760028114620006a157620006d7565b600191505062000740565b60ff841115620006b657620006b5620005c4565b5b8360020a915084821115620006d057620006cf620005c4565b5b5062000740565b5060208310610133831016604e8410600b8410161715620007115782820a9050838111156200070b576200070a620005c4565b5b62000740565b62000720848484600162000600565b925090508184048111156200073a5762000739620005c4565b5b81810290505b9392505050565b6000819050919050565b60006200075e8262000747565b91506200076b8362000747565b92506200079a7fffffffffffffffffffffffffffffffffffffffffffffffffffffffffffffffff84846200065b565b905092915050565b6000620007af8262000747565b9150620007bc8362000747565b9250828202620007cc8162000747565b91508282048414831517620007e657620007e5620005c4565b5b5092915050565b600081519050919050565b7f4e487b7100000000000000000000000000000000000000000000000000000000600052604160045260246000fd5b7f4e487b7100000000000000000000000000000000000000000000000000000000600052602260045260246000fd5b600060028204905060018216806200086f57607f821691505b60208210810362000885576200088462000827565b5b50919050565b60008190508160005260206000209050919050565b60006020601f8301049050919050565b600082821b905092915050565b600060088302620008ef7fffffffffffffffffffffffffffffffffffffffffffffffffffffffffffffffff82620008b0565b620008fb8683620008b0565b95508019841693508086168417925050509392505050565b6000819050919050565b60006200093e62000938620009328462000747565b62000913565b62000747565b9050919050565b6000819050919050565b6200095a836200091d565b62000972620009698262000945565b848454620008bd565b825550505050565b600090565b620009896200097a565b620009968184846200094f565b505050565b5b81811015620009be57620009b26000826200097f565b6001810190506200099c565b5050565b601f82111562000a0d57620009d7816200088b565b620009e284620008a0565b81016020851015620009f2578190505b62000a0a62000a0185620008a0565b8301826200099b565b50505b505050565b600082821c905092915050565b600062000a326000198460080262000a12565b1980831691505092915050565b600062000a4d838362000a1f565b9150826002028217905092915050565b62000a6882620007ed565b67ffffffffffffffff81111562000a845762000a83620007f8565b5b62000a90825462000856565b62000a9d828285620009c2565b600060209050601f83116001811462000ad5576000841562000ac0578287015190505b62000acc858262000a3f565b86555062000b3c565b601f19841662000ae5866200088b565b60005b8281101562000b0f5784890151825560018201915060208501945060208101905062000ae8565b8683101562000b2f578489015162000b2b601f89168262000a1f565b8355505b6001600288020188555050505b505050505050565b600082825260208201905092915050565b60005b8381101562000b7557808201518184015260208101905062000b58565b60008484015250505050565b6000601f19601f8301169050919050565b600062000b9f82620007ed565b62000bab818562000b44565b935062000bbd81856020860162000b55565b62000bc88162000b81565b840191505092915050565b600073ffffffffffffffffffffffffffffffffffffffff82169050919050565b600062000c008262000bd3565b9050919050565b62000c128162000bf3565b82525050565b62000c238162000747565b82525050565b6000606082019050818103600083015262000c45818662000b92565b905062000c56602083018562000c07565b62000c65604083018462000c18565b949350505050565b7f45524332303a206d696e7420746f20746865207a65726f206164647265737300600082015250565b600062000ca5601f8362000b44565b915062000cb28262000c6d565b602082019050919050565b6000602082019050818103600083015262000cd88162000c96565b9050919050565b600062000cec8262000747565b915062000cf98362000747565b925082820190508082111562000d145762000d13620005c4565b5b92915050565b600060208201905062000d31600083018462000c18565b92915050565b7f4f776e61626c653a2063616c6c6572206973206e6f7420746865206f776e6572600082015250565b600062000d6f60208362000b44565b915062000d7c8262000d37565b602082019050919050565b6000602082019050818103600083015262000da28162000d60565b9050919050565b7f4f776e61626c653a206e6577206f776e657220697320746865207a65726f206160008201527f6464726573730000000000000000000000000000000000000000000000000000602082015250565b600062000e0760268362000b44565b915062000e148262000da9565b604082019050919050565b6000602082019050818103600083015262000e3a8162000df8565b9050919050565b611e768062000e516000396000f3fe608060405234801561001057600080fd5b506004361061010b5760003560e01c806370a08231116100a257806395d89b411161007157806395d89b41146102a6578063a457c2d7146102c4578063a9059cbb146102f4578063dd62ed3e14610324578063f2fde38b146103545761010b565b806370a0823114610232578063715018a61461026257806379cc67901461026c5780638da5cb5b146102885761010b565b8063313ce567116100de578063313ce567146101ac57806339509351146101ca57806340c10f19146101fa57806342966c68146102165761010b565b806306fdde0314610110578063095ea7b31461012e57806318160ddd1461015e57806323b872dd1461017c575b600080fd5b610118610370565b6040516101259190611390565b60405180910390f35b6101486004803603810190610143919061144b565b610402565b60405161015591906114a6565b60405180910390f35b610166610425565b60405161017391906114d0565b60405180910390f35b610196600480360381019061019191906114eb565b61042f565b6040516101a391906114a6565b60405180910390f35b6101b461045e565b6040516101c1919061155a565b60405180910390f35b6101e460048036038101906101df919061144b565b610467565b6040516101f191906114a6565b60405180910390f35b610214600480360381019061020f919061144b565b61049e565b005b610230600480360381019061022b9190611575565b61057f565b005b61024c600480360381019061024791906115a2565b610593565b60405161025991906114d0565b60405180910390f35b61026a6105db565b005b6102866004803603810190610281919061144b565b610663565b005b610290610683565b60405161029d91906115de565b60405180910390f35b6102ae6106ad565b6040516102bb9190611390565b60405180910390f35b6102de60048036038101906102d9919061144b565b61073f565b6040516102eb91906114a6565b60405180910390f35b61030e6004803603810190610309919061144b565b6107b6565b60405161031b91906114a6565b60405180910390f35b61033e600480360381019061033991906115f9565b6107d9565b60405161034b91906114d0565b60405180910390f35b61036e600480360381019061036991906115a2565b610860565b005b60606003805461037f90611668565b80601f01602080910402602001604051908101604052809291908181526020018280546103ab90611668565b80156103f85780601f106103cd576101008083540402835291602001916103f8565b820191906000526020600020905b8154815290600101906020018083116103db57829003601f168201915b5050505050905090565b60008061040d6109f6565b905061041a8185856109fe565b600191505092915050565b6000600254905090565b60008061043a6109f6565b9050610447858285610bc7565b610452858585610c53565b60019150509392505050565b60006012905090565b6000806104726109f6565b905061049381858561048485896107d9565b61048e91906116c8565b6109fe565b600191505092915050565b6104a66109f6565b73ffffffffffffffffffffffffffffffffffffffff166104c4610683565b73ffffffffffffffffffffffffffffffffffffffff161461051a576040517f08c379a000000000000000000000000000000000000000000000000000000000815260040161051190611748565b60405180910390fd5b60065481610526610425565b61053091906116c8565b1115610571576040517f08c379a0000000000000000000000000000000000000000000000000000000008152600401610568906117b4565b60405180910390fd5b61057b8282610ed2565b5050565b61059061058a6109f6565b82611031565b50565b60008060008373ffffffffffffffffffffffffffffffffffffffff1673ffffffffffffffffffffffffffffffffffffffff168152602001908152602001600020549050919050565b6105e36109f6565b73ffffffffffffffffffffffffffffffffffffffff16610601610683565b73ffffffffffffffffffffffffffffffffffffffff1614610657576040517f08c379a000000000000000000000000000000000000000000000000000000000815260040161064e90611748565b60405180910390fd5b6106616000611207565b565b6106758261066f6109f6565b83610bc7565b61067f8282611031565b5050565b6000600560009054906101000a900473ffffffffffffffffffffffffffffffffffffffff16905090565b6060600480546106bc90611668565b80601f01602080910402602001604051908101604052809291908181526020018280546106e890611668565b80156107355780601f1061070a57610100808354040283529160200191610735565b820191906000526020600020905b81548152906001019060200180831161071857829003601f168201915b5050505050905090565b60008061074a6109f6565b9050600061075882866107d9565b90508381101561079d576040517f08c379a000000000000000000000000000000000000000000000000000000000815260040161079490611846565b60405180910390fd5b6107aa82868684036109fe565b60019250505092915050565b6000806107c16109f6565b90506107ce818585610c53565b600191505092915050565b6000600160008473ffffffffffffffffffffffffffffffffffffffff1673ffffffffffffffffffffffffffffffffffffffff16815260200190815260200160002060008373ffffffffffffffffffffffffffffffffffffffff1673ffffffffffffffffffffffffffffffffffffffff16815260200190815260200160002054905092915050565b6108686109f6565b73ffffffffffffffffffffffffffffffffffffffff16610886610683565b73ffffffffffffffffffffffffffffffffffffffff16146108dc576040517f08c379a00000000000000000000000000000000000000000000000000000000081526004016108d390611748565b60405180910390fd5b600073ffffffffffffffffffffffffffffffffffffffff168173ffffffffffffffffffffffffffffffffffffffff160361094b576040517f08c379a0000000000000000000000000000000000000000000000000000000008152600401610942906118d8565b60405180910390fd5b61095481611207565b50565b6109f183838360405160240161096f939291906118f8565b6040516020818303038152906040527f0d26b925000000000000000000000000000000000000000000000000000000007bffffffffffffffffffffffffffffffffffffffffffffffffffffffff19166020820180517bffffffffffffffffffffffffffffffffffffffffffffffffffffffff83818316178352505050506112cd565b505050565b600033905090565b600073ffffffffffffffffffffffffffffffffffffffff168373ffffffffffffffffffffffffffffffffffffffff1603610a6d576040517f08c379a0000000000000000000000000000000000000000000000000000000008152600401610a64906119a8565b60405180910390fd5b600073ffffffffffffffffffffffffffffffffffffffff168273ffffffffffffffffffffffffffffffffffffffff1603610adc576040517f08c379a0000000000000000000000000000000000000000000000000000000008152600401610ad390611a3a565b60405180910390fd5b80600160008573ffffffffffffffffffffffffffffffffffffffff1673ffffffffffffffffffffffffffffffffffffffff16815260200190815260200160002060008473ffffffffffffffffffffffffffffffffffffffff1673ffffffffffffffffffffffffffffffffffffffff168152602001908152602001600020819055508173ffffffffffffffffffffffffffffffffffffffff168373ffffffffffffffffffffffffffffffffffffffff167f8c5be1e5ebec7d5bd14f71427d1e84f3dd0314c0f7b2291e5b200ac8c7c3b92583604051610bba91906114d0565b60405180910390a3505050565b6000610bd384846107d9565b90507fffffffffffffffffffffffffffffffffffffffffffffffffffffffffffffffff8114610c4d5781811015610c3f576040517f08c379a0000000000000000000000000000000000000000000000000000000008152600401610c3690611aa6565b60405180910390fd5b610c4c84848484036109fe565b5b50505050565b600073ffffffffffffffffffffffffffffffffffffffff168373ffffffffffffffffffffffffffffffffffffffff1603610cc2576040517f08c379a0000000000000000000000000000000000000000000000000000000008152600401610cb990611b38565b60405180910390fd5b600073ffffffffffffffffffffffffffffffffffffffff168273ffffffffffffffffffffffffffffffffffffffff1603610d31576040517f08c379a0000000000000000000000000000000000000000000000000000000008152600401610d2890611bca565b60405180910390fd5b610d3c8383836112f6565b60008060008573ffffffffffffffffffffffffffffffffffffffff1673ffffffffffffffffffffffffffffffffffffffff16815260200190815260200160002054905081811015610dc2576040517f08c379a0000000000000000000000000000000000000000000000000000000008152600401610db990611c5c565b60405180910390fd5b8181036000808673ffffffffffffffffffffffffffffffffffffffff1673ffffffffffffffffffffffffffffffffffffffff16815260200190815260200160002081905550816000808573ffffffffffffffffffffffffffffffffffffffff1673ffffffffffffffffffffffffffffffffffffffff1681526020019081526020016000206000828254610e5591906116c8565b925050819055508273ffffffffffffffffffffffffffffffffffffffff168473ffffffffffffffffffffffffffffffffffffffff167fddf252ad1be2c89b69c2b068fc378daa952ba7f163c4a11628f55a4df523b3ef84604051610eb991906114d0565b60405180910390a3610ecc8484846112fb565b50505050565b600073ffffffffffffffffffffffffffffffffffffffff168273ffffffffffffffffffffffffffffffffffffffff1603610f41576040517f08c379a0000000000000000000000000000000000000000000000000000000008152600401610f3890611cc8565b60405180910390fd5b610f4d600083836112f6565b8060026000828254610f5f91906116c8565b92505081905550806000808473ffffffffffffffffffffffffffffffffffffffff1673ffffffffffffffffffffffffffffffffffffffff1681526020019081526020016000206000828254610fb491906116c8565b925050819055508173ffffffffffffffffffffffffffffffffffffffff16600073ffffffffffffffffffffffffffffffffffffffff167fddf252ad1be2c89b69c2b068fc378daa952ba7f163c4a11628f55a4df523b3ef8360405161101991906114d0565b60405180910390a361102d600083836112fb565b5050565b600073ffffffffffffffffffffffffffffffffffffffff168273ffffffffffffffffffffffffffffffffffffffff16036110a0576040517f08c379a000000000000000000000000000000000000000000000000000000000815260040161109790611d5a565b60405180910390fd5b6110ac826000836112f6565b60008060008473ffffffffffffffffffffffffffffffffffffffff1673ffffffffffffffffffffffffffffffffffffffff16815260200190815260200160002054905081811015611132576040517f08c379a000000000000000000000000000000000000000000000000000000000815260040161112990611dec565b60405180910390fd5b8181036000808573ffffffffffffffffffffffffffffffffffffffff1673ffffffffffffffffffffffffffffffffffffffff1681526020019081526020016000208190555081600260008282546111899190611e0c565b92505081905550600073ffffffffffffffffffffffffffffffffffffffff168373ffffffffffffffffffffffffffffffffffffffff167fddf252ad1be2c89b69c2b068fc378daa952ba7f163c4a11628f55a4df523b3ef846040516111ee91906114d0565b60405180910390a3611202836000846112fb565b505050565b6000600560009054906101000a900473ffffffffffffffffffffffffffffffffffffffff16905081600560006101000a81548173ffffffffffffffffffffffffffffffffffffffff021916908373ffffffffffffffffffffffffffffffffffffffff1602179055508173ffffffffffffffffffffffffffffffffffffffff168173ffffffffffffffffffffffffffffffffffffffff167f8be0079c531659141344cd1fd0a4f28419497f9722a3daafe3b4186f6b6457e060405160405180910390a35050565b60008151905060006a636f6e736f6c652e6c6f679050602083016000808483855afa5050505050565b505050565b505050565b600081519050919050565b600082825260208201905092915050565b60005b8381101561133a57808201518184015260208101905061131f565b60008484015250505050565b6000601f19601f8301169050919050565b600061136282611300565b61136c818561130b565b935061137c81856020860161131c565b61138581611346565b840191505092915050565b600060208201905081810360008301526113aa8184611357565b905092915050565b600080fd5b600073ffffffffffffffffffffffffffffffffffffffff82169050919050565b60006113e2826113b7565b9050919050565b6113f2816113d7565b81146113fd57600080fd5b50565b60008135905061140f816113e9565b92915050565b6000819050919050565b61142881611415565b811461143357600080fd5b50565b6000813590506114458161141f565b92915050565b60008060408385031215611462576114616113b2565b5b600061147085828601611400565b925050602061148185828601611436565b9150509250929050565b60008115159050919050565b6114a08161148b565b82525050565b60006020820190506114bb6000830184611497565b92915050565b6114ca81611415565b82525050565b60006020820190506114e560008301846114c1565b92915050565b600080600060608486031215611504576115036113b2565b5b600061151286828701611400565b935050602061152386828701611400565b925050604061153486828701611436565b9150509250925092565b600060ff82169050919050565b6115548161153e565b82525050565b600060208201905061156f600083018461154b565b92915050565b60006020828403121561158b5761158a6113b2565b5b600061159984828501611436565b91505092915050565b6000602082840312156115b8576115b76113b2565b5b60006115c684828501611400565b91505092915050565b6115d8816113d7565b82525050565b60006020820190506115f360008301846115cf565b92915050565b600080604083850312156116105761160f6113b2565b5b600061161e85828601611400565b925050602061162f85828601611400565b9150509250929050565b7f4e487b7100000000000000000000000000000000000000000000000000000000600052602260045260246000fd5b6000600282049050600182168061168057607f821691505b60208210810361169357611692611639565b5b50919050565b7f4e487b7100000000000000000000000000000000000000000000000000000000600052601160045260246000fd5b60006116d382611415565b91506116de83611415565b92508282019050808211156116f6576116f5611699565b5b92915050565b7f4f776e61626c653a2063616c6c6572206973206e6f7420746865206f776e6572600082015250565b600061173260208361130b565b915061173d826116fc565b602082019050919050565b6000602082019050818103600083015261176181611725565b9050919050565b7f466c6f7070793a20636170206578636565646564000000000000000000000000600082015250565b600061179e60148361130b565b91506117a982611768565b602082019050919050565b600060208201905081810360008301526117cd81611791565b9050919050565b7f45524332303a2064656372656173656420616c6c6f77616e63652062656c6f7760008201527f207a65726f000000000000000000000000000000000000000000000000000000602082015250565b600061183060258361130b565b915061183b826117d4565b604082019050919050565b6000602082019050818103600083015261185f81611823565b9050919050565b7f4f776e61626c653a206e6577206f776e657220697320746865207a65726f206160008201527f6464726573730000000000000000000000000000000000000000000000000000602082015250565b60006118c260268361130b565b91506118cd82611866565b604082019050919050565b600060208201905081810360008301526118f1816118b5565b9050919050565b600060608201905081810360008301526119128186611357565b905061192160208301856115cf565b61192e60408301846114c1565b949350505050565b7f45524332303a20617070726f76652066726f6d20746865207a65726f2061646460008201527f7265737300000000000000000000000000000000000000000000000000000000602082015250565b600061199260248361130b565b915061199d82611936565b604082019050919050565b600060208201905081810360008301526119c181611985565b9050919050565b7f45524332303a20617070726f766520746f20746865207a65726f20616464726560008201527f7373000000000000000000000000000000000000000000000000000000000000602082015250565b6000611a2460228361130b565b9150611a2f826119c8565b604082019050919050565b60006020820190508181036000830152611a5381611a17565b9050919050565b7f45524332303a20696e73756666696369656e7420616c6c6f77616e6365000000600082015250565b6000611a90601d8361130b565b9150611a9b82611a5a565b602082019050919050565b60006020820190508181036000830152611abf81611a83565b9050919050565b7f45524332303a207472616e736665722066726f6d20746865207a65726f20616460008201527f6472657373000000000000000000000000000000000000000000000000000000602082015250565b6000611b2260258361130b565b9150611b2d82611ac6565b604082019050919050565b60006020820190508181036000830152611b5181611b15565b9050919050565b7f45524332303a207472616e7366657220746f20746865207a65726f206164647260008201527f6573730000000000000000000000000000000000000000000000000000000000602082015250565b6000611bb460238361130b565b9150611bbf82611b58565b604082019050919050565b60006020820190508181036000830152611be381611ba7565b9050919050565b7f45524332303a207472616e7366657220616d6f756e742065786365656473206260008201527f616c616e63650000000000000000000000000000000000000000000000000000602082015250565b6000611c4660268361130b565b9150611c5182611bea565b604082019050919050565b60006020820190508181036000830152611c7581611c39565b9050919050565b7f45524332303a206d696e7420746f20746865207a65726f206164647265737300600082015250565b6000611cb2601f8361130b565b9150611cbd82611c7c565b602082019050919050565b60006020820190508181036000830152611ce181611ca5565b9050919050565b7f45524332303a206275726e2066726f6d20746865207a65726f2061646472657360008201527f7300000000000000000000000000000000000000000000000000000000000000602082015250565b6000611d4460218361130b565b9150611d4f82611ce8565b604082019050919050565b60006020820190508181036000830152611d7381611d37565b9050919050565b7f45524332303a206275726e20616d6f756e7420657863656564732062616c616e60008201527f6365000000000000000000000000000000000000000000000000000000000000602082015250565b6000611dd660228361130b565b9150611de182611d7a565b604082019050919050565b60006020820190508181036000830152611e0581611dc9565b9050919050565b6000611e1782611415565b9150611e2283611415565b9250828203905081811115611e3a57611e39611699565b5b9291505056fea2646970667358221220f7e4139d6dc38aaa62b79295b80f520373fe45cc0f9e1614fa2782694d700a7d64736f6c63430008110033",
  "linkReferences": {},
  "deployedLinkReferences": {}
}