{
  "_format": "hh-sol-artifact-1",
  "contractName": "ESDC_NFT",
  "sourceName": "contracts/ESDC_nft.sol",
  "abi": [
    {
      "inputs": [
        {
          "internalType": "address",
          "name": "tokenAddress",
          "type": "address"
        }
      ],
      "stateMutability": "nonpayable",
      "type": "constructor"
    },
    {
      "anonymous": false,
      "inputs": [
        {
          "indexed": true,
          "internalType": "address",
          "name": "owner",
          "type": "address"
        },
        {
          "indexed": true,
          "internalType": "address",
          "name": "approved",
          "type": "address"
        },
        {
          "indexed": true,
          "internalType": "uint256",
          "name": "tokenId",
          "type": "uint256"
        }
      ],
      "name": "Approval",
      "type": "event"
    },
    {
      "anonymous": false,
      "inputs": [
        {
          "indexed": true,
          "internalType": "address",
          "name": "owner",
          "type": "address"
        },
        {
          "indexed": true,
          "internalType": "address",
          "name": "operator",
          "type": "address"
        },
        {
          "indexed": false,
          "internalType": "bool",
          "name": "approved",
          "type": "bool"
        }
      ],
      "name": "ApprovalForAll",
      "type": "event"
    },
    {
      "anonymous": false,
      "inputs": [
        {
          "indexed": true,
          "internalType": "address",
          "name": "previousOwner",
          "type": "address"
        },
        {
          "indexed": true,
          "internalType": "address",
          "name": "newOwner",
          "type": "address"
        }
      ],
      "name": "OwnershipTransferred",
      "type": "event"
    },
    {
      "anonymous": false,
      "inputs": [
        {
          "indexed": true,
          "internalType": "address",
          "name": "from",
          "type": "address"
        },
        {
          "indexed": true,
          "internalType": "address",
          "name": "to",
          "type": "address"
        },
        {
          "indexed": true,
          "internalType": "uint256",
          "name": "tokenId",
          "type": "uint256"
        }
      ],
      "name": "Transfer",
      "type": "event"
    },
    {
      "inputs": [],
      "name": "_tokenAddress",
      "outputs": [
        {
          "internalType": "contract IERC20",
          "name": "",
          "type": "address"
        }
      ],
      "stateMutability": "view",
      "type": "function"
    },
    {
      "inputs": [
        {
          "internalType": "address",
          "name": "to",
          "type": "address"
        },
        {
          "internalType": "uint256",
          "name": "tokenId",
          "type": "uint256"
        }
      ],
      "name": "approve",
      "outputs": [],
      "stateMutability": "nonpayable",
      "type": "function"
    },
    {
      "inputs": [
        {
          "internalType": "address",
          "name": "owner",
          "type": "address"
        }
      ],
      "name": "balanceOf",
      "outputs": [
        {
          "internalType": "uint256",
          "name": "",
          "type": "uint256"
        }
      ],
      "stateMutability": "view",
      "type": "function"
    },
    {
      "inputs": [
        {
          "internalType": "uint256",
          "name": "tokenId",
          "type": "uint256"
        }
      ],
      "name": "getApproved",
      "outputs": [
        {
          "internalType": "address",
          "name": "",
          "type": "address"
        }
      ],
      "stateMutability": "view",
      "type": "function"
    },
    {
      "inputs": [
        {
          "internalType": "address",
          "name": "owner",
          "type": "address"
        },
        {
          "internalType": "address",
          "name": "operator",
          "type": "address"
        }
      ],
      "name": "isApprovedForAll",
      "outputs": [
        {
          "internalType": "bool",
          "name": "",
          "type": "bool"
        }
      ],
      "stateMutability": "view",
      "type": "function"
    },
    {
      "inputs": [
        {
          "internalType": "string",
          "name": "tokenURI",
          "type": "string"
        }
      ],
      "name": "mintNFT",
      "outputs": [
        {
          "internalType": "uint256",
          "name": "",
          "type": "uint256"
        }
      ],
      "stateMutability": "nonpayable",
      "type": "function"
    },
    {
      "inputs": [],
      "name": "name",
      "outputs": [
        {
          "internalType": "string",
          "name": "",
          "type": "string"
        }
      ],
      "stateMutability": "view",
      "type": "function"
    },
    {
      "inputs": [],
      "name": "owner",
      "outputs": [
        {
          "internalType": "address",
          "name": "",
          "type": "address"
        }
      ],
      "stateMutability": "view",
      "type": "function"
    },
    {
      "inputs": [
        {
          "internalType": "uint256",
          "name": "tokenId",
          "type": "uint256"
        }
      ],
      "name": "ownerOf",
      "outputs": [
        {
          "internalType": "address",
          "name": "",
          "type": "address"
        }
      ],
      "stateMutability": "view",
      "type": "function"
    },
    {
      "inputs": [],
      "name": "renounceOwnership",
      "outputs": [],
      "stateMutability": "nonpayable",
      "type": "function"
    },
    {
      "inputs": [
        {
          "internalType": "address",
          "name": "from",
          "type": "address"
        },
        {
          "internalType": "address",
          "name": "to",
          "type": "address"
        },
        {
          "internalType": "uint256",
          "name": "tokenId",
          "type": "uint256"
        }
      ],
      "name": "safeTransferFrom",
      "outputs": [],
      "stateMutability": "nonpayable",
      "type": "function"
    },
    {
      "inputs": [
        {
          "internalType": "address",
          "name": "from",
          "type": "address"
        },
        {
          "internalType": "address",
          "name": "to",
          "type": "address"
        },
        {
          "internalType": "uint256",
          "name": "tokenId",
          "type": "uint256"
        },
        {
          "internalType": "bytes",
          "name": "data",
          "type": "bytes"
        }
      ],
      "name": "safeTransferFrom",
      "outputs": [],
      "stateMutability": "nonpayable",
      "type": "function"
    },
    {
      "inputs": [
        {
          "internalType": "address",
          "name": "operator",
          "type": "address"
        },
        {
          "internalType": "bool",
          "name": "approved",
          "type": "bool"
        }
      ],
      "name": "setApprovalForAll",
      "outputs": [],
      "stateMutability": "nonpayable",
      "type": "function"
    },
    {
      "inputs": [
        {
          "internalType": "uint256",
          "name": "rate",
          "type": "uint256"
        }
      ],
      "name": "setRate",
      "outputs": [],
      "stateMutability": "nonpayable",
      "type": "function"
    },
    {
      "inputs": [
        {
          "internalType": "bytes4",
          "name": "interfaceId",
          "type": "bytes4"
        }
      ],
      "name": "supportsInterface",
      "outputs": [
        {
          "internalType": "bool",
          "name": "",
          "type": "bool"
        }
      ],
      "stateMutability": "view",
      "type": "function"
    },
    {
      "inputs": [],
      "name": "symbol",
      "outputs": [
        {
          "internalType": "string",
          "name": "",
          "type": "string"
        }
      ],
      "stateMutability": "view",
      "type": "function"
    },
    {
      "inputs": [],
      "name": "tokenBalance",
      "outputs": [
        {
          "internalType": "uint256",
          "name": "",
          "type": "uint256"
        }
      ],
      "stateMutability": "view",
      "type": "function"
    },
    {
      "inputs": [
        {
          "internalType": "uint256",
          "name": "tokenId",
          "type": "uint256"
        }
      ],
      "name": "tokenURI",
      "outputs": [
        {
          "internalType": "string",
          "name": "",
          "type": "string"
        }
      ],
      "stateMutability": "view",
      "type": "function"
    },
    {
      "inputs": [
        {
          "internalType": "address",
          "name": "from",
          "type": "address"
        },
        {
          "internalType": "address",
          "name": "to",
          "type": "address"
        },
        {
          "internalType": "uint256",
          "name": "tokenId",
          "type": "uint256"
        }
      ],
      "name": "transferFrom",
      "outputs": [],
      "stateMutability": "nonpayable",
      "type": "function"
    },
    {
      "inputs": [
        {
          "internalType": "address",
          "name": "newOwner",
          "type": "address"
        }
      ],
      "name": "transferOwnership",
      "outputs": [],
      "stateMutability": "nonpayable",
      "type": "function"
    },
    {
      "inputs": [],
      "name": "withdrawToken",
      "outputs": [],
      "stateMutability": "nonpayable",
      "type": "function"
    }
  ],
  "bytecode": "0x60806040526012600a620000149190620003ad565b6064620000229190620003fe565b600a553480156200003257600080fd5b5060405162003cc838038062003cc88339818101604052810190620000589190620004b3565b6040518060400160405280600881526020017f455344435f4e46540000000000000000000000000000000000000000000000008152506040518060400160405280600481526020017f454e4654000000000000000000000000000000000000000000000000000000008152508160009081620000d5919062000755565b508060019081620000e7919062000755565b5050506200010a620000fe6200015260201b60201c565b6200015a60201b60201c565b80600960006101000a81548173ffffffffffffffffffffffffffffffffffffffff021916908373ffffffffffffffffffffffffffffffffffffffff160217905550506200083c565b600033905090565b6000600760009054906101000a900473ffffffffffffffffffffffffffffffffffffffff16905081600760006101000a81548173ffffffffffffffffffffffffffffffffffffffff021916908373ffffffffffffffffffffffffffffffffffffffff1602179055508173ffffffffffffffffffffffffffffffffffffffff168173ffffffffffffffffffffffffffffffffffffffff167f8be0079c531659141344cd1fd0a4f28419497f9722a3daafe3b4186f6b6457e060405160405180910390a35050565b7f4e487b7100000000000000000000000000000000000000000000000000000000600052601160045260246000fd5b60008160011c9050919050565b6000808291508390505b6001851115620002ae5780860481111562000286576200028562000220565b5b6001851615620002965780820291505b8081029050620002a6856200024f565b945062000266565b94509492505050565b600082620002c957600190506200039c565b81620002d957600090506200039c565b8160018114620002f25760028114620002fd5762000333565b60019150506200039c565b60ff84111562000312576200031162000220565b5b8360020a9150848211156200032c576200032b62000220565b5b506200039c565b5060208310610133831016604e8410600b84101617156200036d5782820a90508381111562000367576200036662000220565b5b6200039c565b6200037c84848460016200025c565b9250905081840481111562000396576200039562000220565b5b81810290505b9392505050565b6000819050919050565b6000620003ba82620003a3565b9150620003c783620003a3565b9250620003f67fffffffffffffffffffffffffffffffffffffffffffffffffffffffffffffffff8484620002b7565b905092915050565b60006200040b82620003a3565b91506200041883620003a3565b92508282026200042881620003a3565b9150828204841483151762000442576200044162000220565b5b5092915050565b600080fd5b600073ffffffffffffffffffffffffffffffffffffffff82169050919050565b60006200047b826200044e565b9050919050565b6200048d816200046e565b81146200049957600080fd5b50565b600081519050620004ad8162000482565b92915050565b600060208284031215620004cc57620004cb62000449565b5b6000620004dc848285016200049c565b91505092915050565b600081519050919050565b7f4e487b7100000000000000000000000000000000000000000000000000000000600052604160045260246000fd5b7f4e487b7100000000000000000000000000000000000000000000000000000000600052602260045260246000fd5b600060028204905060018216806200056757607f821691505b6020821081036200057d576200057c6200051f565b5b50919050565b60008190508160005260206000209050919050565b60006020601f8301049050919050565b600082821b905092915050565b600060088302620005e77fffffffffffffffffffffffffffffffffffffffffffffffffffffffffffffffff82620005a8565b620005f38683620005a8565b95508019841693508086168417925050509392505050565b6000819050919050565b600062000636620006306200062a84620003a3565b6200060b565b620003a3565b9050919050565b6000819050919050565b620006528362000615565b6200066a62000661826200063d565b848454620005b5565b825550505050565b600090565b6200068162000672565b6200068e81848462000647565b505050565b5b81811015620006b657620006aa60008262000677565b60018101905062000694565b5050565b601f8211156200070557620006cf8162000583565b620006da8462000598565b81016020851015620006ea578190505b62000702620006f98562000598565b83018262000693565b50505b505050565b600082821c905092915050565b60006200072a600019846008026200070a565b1980831691505092915050565b600062000745838362000717565b9150826002028217905092915050565b6200076082620004e5565b67ffffffffffffffff8111156200077c576200077b620004f0565b5b6200078882546200054e565b62000795828285620006ba565b600060209050601f831160018114620007cd5760008415620007b8578287015190505b620007c4858262000737565b86555062000834565b601f198416620007dd8662000583565b60005b828110156200080757848901518255600182019150602085019450602081019050620007e0565b8683101562000827578489015162000823601f89168262000717565b8355505b6001600288020188555050505b505050505050565b61347c806200084c6000396000f3fe608060405234801561001057600080fd5b50600436106101375760003560e01c8063715018a6116100b8578063b88d4fde1161007c578063b88d4fde14610328578063c87b56dd14610344578063ca628c7814610374578063e985e9c51461037e578063f2fde38b146103ae578063fb37e883146103ca57610137565b8063715018a6146102a85780638da5cb5b146102b257806395d89b41146102d05780639e1a4d19146102ee578063a22cb4651461030c57610137565b806334fcf437116100ff57806334fcf437146101f257806342842e0e1461020e578063543fcf031461022a5780636352211e1461024857806370a082311461027857610137565b806301ffc9a71461013c57806306fdde031461016c578063081812fc1461018a578063095ea7b3146101ba57806323b872dd146101d6575b600080fd5b61015660048036038101906101519190612095565b6103fa565b60405161016391906120dd565b60405180910390f35b6101746104dc565b6040516101819190612188565b60405180910390f35b6101a4600480360381019061019f91906121e0565b61056e565b6040516101b1919061224e565b60405180910390f35b6101d460048036038101906101cf9190612295565b6105b4565b005b6101f060048036038101906101eb91906122d5565b6106cb565b005b61020c600480360381019061020791906121e0565b61072b565b005b610228600480360381019061022391906122d5565b61073d565b005b61023261075d565b60405161023f9190612387565b60405180910390f35b610262600480360381019061025d91906121e0565b610783565b60405161026f919061224e565b60405180910390f35b610292600480360381019061028d91906123a2565b610809565b60405161029f91906123de565b60405180910390f35b6102b06108c0565b005b6102ba6108d4565b6040516102c7919061224e565b60405180910390f35b6102d86108fe565b6040516102e59190612188565b60405180910390f35b6102f6610990565b60405161030391906123de565b60405180910390f35b61032660048036038101906103219190612425565b610a3b565b005b610342600480360381019061033d919061259a565b610a51565b005b61035e600480360381019061035991906121e0565b610ab3565b60405161036b9190612188565b60405180910390f35b61037c610bc5565b005b6103986004803603810190610393919061261d565b610d0b565b6040516103a591906120dd565b60405180910390f35b6103c860048036038101906103c391906123a2565b610d9f565b005b6103e460048036038101906103df91906126fe565b610e22565b6040516103f191906123de565b60405180910390f35b60007f80ac58cd000000000000000000000000000000000000000000000000000000007bffffffffffffffffffffffffffffffffffffffffffffffffffffffff1916827bffffffffffffffffffffffffffffffffffffffffffffffffffffffff191614806104c557507f5b5e139f000000000000000000000000000000000000000000000000000000007bffffffffffffffffffffffffffffffffffffffffffffffffffffffff1916827bffffffffffffffffffffffffffffffffffffffffffffffffffffffff1916145b806104d557506104d482610efe565b5b9050919050565b6060600080546104eb90612776565b80601f016020809104026020016040519081016040528092919081815260200182805461051790612776565b80156105645780601f1061053957610100808354040283529160200191610564565b820191906000526020600020905b81548152906001019060200180831161054757829003601f168201915b5050505050905090565b600061057982610f68565b6004600083815260200190815260200160002060009054906101000a900473ffffffffffffffffffffffffffffffffffffffff169050919050565b60006105bf82610783565b90508073ffffffffffffffffffffffffffffffffffffffff168373ffffffffffffffffffffffffffffffffffffffff160361062f576040517f08c379a000000000000000000000000000000000000000000000000000000000815260040161062690612819565b60405180910390fd5b8073ffffffffffffffffffffffffffffffffffffffff1661064e610fb3565b73ffffffffffffffffffffffffffffffffffffffff16148061067d575061067c81610677610fb3565b610d0b565b5b6106bc576040517f08c379a00000000000000000000000000000000000000000000000000000000081526004016106b3906128ab565b60405180910390fd5b6106c68383610fbb565b505050565b6106dc6106d6610fb3565b82611074565b61071b576040517f08c379a00000000000000000000000000000000000000000000000000000000081526004016107129061293d565b60405180910390fd5b610726838383611109565b505050565b610733611402565b80600a8190555050565b61075883838360405180602001604052806000815250610a51565b505050565b600960009054906101000a900473ffffffffffffffffffffffffffffffffffffffff1681565b60008061078f83611480565b9050600073ffffffffffffffffffffffffffffffffffffffff168173ffffffffffffffffffffffffffffffffffffffff1603610800576040517f08c379a00000000000000000000000000000000000000000000000000000000081526004016107f7906129a9565b60405180910390fd5b80915050919050565b60008073ffffffffffffffffffffffffffffffffffffffff168273ffffffffffffffffffffffffffffffffffffffff1603610879576040517f08c379a000000000000000000000000000000000000000000000000000000000815260040161087090612a3b565b60405180910390fd5b600360008373ffffffffffffffffffffffffffffffffffffffff1673ffffffffffffffffffffffffffffffffffffffff168152602001908152602001600020549050919050565b6108c8611402565b6108d260006114bd565b565b6000600760009054906101000a900473ffffffffffffffffffffffffffffffffffffffff16905090565b60606001805461090d90612776565b80601f016020809104026020016040519081016040528092919081815260200182805461093990612776565b80156109865780601f1061095b57610100808354040283529160200191610986565b820191906000526020600020905b81548152906001019060200180831161096957829003601f168201915b5050505050905090565b600061099a611402565b600960009054906101000a900473ffffffffffffffffffffffffffffffffffffffff1673ffffffffffffffffffffffffffffffffffffffff166370a08231306040518263ffffffff1660e01b81526004016109f5919061224e565b602060405180830381865afa158015610a12573d6000803e3d6000fd5b505050506040513d601f19601f82011682018060405250810190610a369190612a70565b905090565b610a4d610a46610fb3565b8383611583565b5050565b610a62610a5c610fb3565b83611074565b610aa1576040517f08c379a0000000000000000000000000000000000000000000000000000000008152600401610a989061293d565b60405180910390fd5b610aad848484846116ef565b50505050565b6060610abe82610f68565b6000600660008481526020019081526020016000208054610ade90612776565b80601f0160208091040260200160405190810160405280929190818152602001828054610b0a90612776565b8015610b575780601f10610b2c57610100808354040283529160200191610b57565b820191906000526020600020905b815481529060010190602001808311610b3a57829003601f168201915b505050505090506000610b6861174b565b90506000815103610b7d578192505050610bc0565b600082511115610bb2578082604051602001610b9a929190612ad9565b60405160208183030381529060405292505050610bc0565b610bbb84611762565b925050505b919050565b610bcd611402565b600960009054906101000a900473ffffffffffffffffffffffffffffffffffffffff1673ffffffffffffffffffffffffffffffffffffffff1663a9059cbb33600960009054906101000a900473ffffffffffffffffffffffffffffffffffffffff1673ffffffffffffffffffffffffffffffffffffffff166370a08231306040518263ffffffff1660e01b8152600401610c67919061224e565b602060405180830381865afa158015610c84573d6000803e3d6000fd5b505050506040513d601f19601f82011682018060405250810190610ca89190612a70565b6040518363ffffffff1660e01b8152600401610cc5929190612afd565b6020604051808303816000875af1158015610ce4573d6000803e3d6000fd5b505050506040513d601f19601f82011682018060405250810190610d089190612b3b565b50565b6000600560008473ffffffffffffffffffffffffffffffffffffffff1673ffffffffffffffffffffffffffffffffffffffff16815260200190815260200160002060008373ffffffffffffffffffffffffffffffffffffffff1673ffffffffffffffffffffffffffffffffffffffff16815260200190815260200160002060009054906101000a900460ff16905092915050565b610da7611402565b600073ffffffffffffffffffffffffffffffffffffffff168173ffffffffffffffffffffffffffffffffffffffff1603610e16576040517f08c379a0000000000000000000000000000000000000000000000000000000008152600401610e0d90612bda565b60405180910390fd5b610e1f816114bd565b50565b6000600960009054906101000a900473ffffffffffffffffffffffffffffffffffffffff1673ffffffffffffffffffffffffffffffffffffffff166323b872dd3330600a546040518463ffffffff1660e01b8152600401610e8593929190612bfa565b6020604051808303816000875af1158015610ea4573d6000803e3d6000fd5b505050506040513d601f19601f82011682018060405250810190610ec89190612b3b565b50610ed360086117ca565b6000610edf60086117e0565b9050610eeb33826117ee565b610ef5818461180c565b80915050919050565b60007f01ffc9a7000000000000000000000000000000000000000000000000000000007bffffffffffffffffffffffffffffffffffffffffffffffffffffffff1916827bffffffffffffffffffffffffffffffffffffffffffffffffffffffff1916149050919050565b610f7181611879565b610fb0576040517f08c379a0000000000000000000000000000000000000000000000000000000008152600401610fa7906129a9565b60405180910390fd5b50565b600033905090565b816004600083815260200190815260200160002060006101000a81548173ffffffffffffffffffffffffffffffffffffffff021916908373ffffffffffffffffffffffffffffffffffffffff160217905550808273ffffffffffffffffffffffffffffffffffffffff1661102e83610783565b73ffffffffffffffffffffffffffffffffffffffff167f8c5be1e5ebec7d5bd14f71427d1e84f3dd0314c0f7b2291e5b200ac8c7c3b92560405160405180910390a45050565b60008061108083610783565b90508073ffffffffffffffffffffffffffffffffffffffff168473ffffffffffffffffffffffffffffffffffffffff1614806110c257506110c18185610d0b565b5b8061110057508373ffffffffffffffffffffffffffffffffffffffff166110e88461056e565b73ffffffffffffffffffffffffffffffffffffffff16145b91505092915050565b8273ffffffffffffffffffffffffffffffffffffffff1661112982610783565b73ffffffffffffffffffffffffffffffffffffffff161461117f576040517f08c379a000000000000000000000000000000000000000000000000000000000815260040161117690612ca3565b60405180910390fd5b600073ffffffffffffffffffffffffffffffffffffffff168273ffffffffffffffffffffffffffffffffffffffff16036111ee576040517f08c379a00000000000000000000000000000000000000000000000000000000081526004016111e590612d35565b60405180910390fd5b6111fb83838360016118ba565b8273ffffffffffffffffffffffffffffffffffffffff1661121b82610783565b73ffffffffffffffffffffffffffffffffffffffff1614611271576040517f08c379a000000000000000000000000000000000000000000000000000000000815260040161126890612ca3565b60405180910390fd5b6004600082815260200190815260200160002060006101000a81549073ffffffffffffffffffffffffffffffffffffffff02191690556001600360008573ffffffffffffffffffffffffffffffffffffffff1673ffffffffffffffffffffffffffffffffffffffff168152602001908152602001600020600082825403925050819055506001600360008473ffffffffffffffffffffffffffffffffffffffff1673ffffffffffffffffffffffffffffffffffffffff16815260200190815260200160002060008282540192505081905550816002600083815260200190815260200160002060006101000a81548173ffffffffffffffffffffffffffffffffffffffff021916908373ffffffffffffffffffffffffffffffffffffffff160217905550808273ffffffffffffffffffffffffffffffffffffffff168473ffffffffffffffffffffffffffffffffffffffff167fddf252ad1be2c89b69c2b068fc378daa952ba7f163c4a11628f55a4df523b3ef60405160405180910390a46113fd83838360016119e0565b505050565b61140a610fb3565b73ffffffffffffffffffffffffffffffffffffffff166114286108d4565b73ffffffffffffffffffffffffffffffffffffffff161461147e576040517f08c379a000000000000000000000000000000000000000000000000000000000815260040161147590612da1565b60405180910390fd5b565b60006002600083815260200190815260200160002060009054906101000a900473ffffffffffffffffffffffffffffffffffffffff169050919050565b6000600760009054906101000a900473ffffffffffffffffffffffffffffffffffffffff16905081600760006101000a81548173ffffffffffffffffffffffffffffffffffffffff021916908373ffffffffffffffffffffffffffffffffffffffff1602179055508173ffffffffffffffffffffffffffffffffffffffff168173ffffffffffffffffffffffffffffffffffffffff167f8be0079c531659141344cd1fd0a4f28419497f9722a3daafe3b4186f6b6457e060405160405180910390a35050565b8173ffffffffffffffffffffffffffffffffffffffff168373ffffffffffffffffffffffffffffffffffffffff16036115f1576040517f08c379a00000000000000000000000000000000000000000000000000000000081526004016115e890612e0d565b60405180910390fd5b80600560008573ffffffffffffffffffffffffffffffffffffffff1673ffffffffffffffffffffffffffffffffffffffff16815260200190815260200160002060008473ffffffffffffffffffffffffffffffffffffffff1673ffffffffffffffffffffffffffffffffffffffff16815260200190815260200160002060006101000a81548160ff0219169083151502179055508173ffffffffffffffffffffffffffffffffffffffff168373ffffffffffffffffffffffffffffffffffffffff167f17307eab39ab6107e8899845ad3d59bd9653f200f220920489ca2b5937696c31836040516116e291906120dd565b60405180910390a3505050565b6116fa848484611109565b611706848484846119e6565b611745576040517f08c379a000000000000000000000000000000000000000000000000000000000815260040161173c90612e9f565b60405180910390fd5b50505050565b606060405180602001604052806000815250905090565b606061176d82610f68565b600061177761174b565b9050600081511161179757604051806020016040528060008152506117c2565b806117a184611b6d565b6040516020016117b2929190612ad9565b6040516020818303038152906040525b915050919050565b6001816000016000828254019250508190555050565b600081600001549050919050565b611808828260405180602001604052806000815250611c3b565b5050565b61181582611879565b611854576040517f08c379a000000000000000000000000000000000000000000000000000000000815260040161184b90612f31565b60405180910390fd5b8060066000848152602001908152602001600020908161187491906130f3565b505050565b60008073ffffffffffffffffffffffffffffffffffffffff1661189b83611480565b73ffffffffffffffffffffffffffffffffffffffff1614159050919050565b60018111156119da57600073ffffffffffffffffffffffffffffffffffffffff168473ffffffffffffffffffffffffffffffffffffffff161461194e5780600360008673ffffffffffffffffffffffffffffffffffffffff1673ffffffffffffffffffffffffffffffffffffffff168152602001908152602001600020600082825461194691906131f4565b925050819055505b600073ffffffffffffffffffffffffffffffffffffffff168373ffffffffffffffffffffffffffffffffffffffff16146119d95780600360008573ffffffffffffffffffffffffffffffffffffffff1673ffffffffffffffffffffffffffffffffffffffff16815260200190815260200160002060008282546119d19190613228565b925050819055505b5b50505050565b50505050565b6000611a078473ffffffffffffffffffffffffffffffffffffffff16611c96565b15611b60578373ffffffffffffffffffffffffffffffffffffffff1663150b7a02611a30610fb3565b8786866040518563ffffffff1660e01b8152600401611a5294939291906132b1565b6020604051808303816000875af1925050508015611a8e57506040513d601f19601f82011682018060405250810190611a8b9190613312565b60015b611b10573d8060008114611abe576040519150601f19603f3d011682016040523d82523d6000602084013e611ac3565b606091505b506000815103611b08576040517f08c379a0000000000000000000000000000000000000000000000000000000008152600401611aff90612e9f565b60405180910390fd5b805181602001fd5b63150b7a0260e01b7bffffffffffffffffffffffffffffffffffffffffffffffffffffffff1916817bffffffffffffffffffffffffffffffffffffffffffffffffffffffff191614915050611b65565b600190505b949350505050565b606060006001611b7c84611cb9565b01905060008167ffffffffffffffff811115611b9b57611b9a61246f565b5b6040519080825280601f01601f191660200182016040528015611bcd5781602001600182028036833780820191505090505b509050600082602001820190505b600115611c30578080600190039150507f3031323334353637383961626364656600000000000000000000000000000000600a86061a8153600a8581611c2457611c2361333f565b5b04945060008503611bdb575b819350505050919050565b611c458383611e0c565b611c5260008484846119e6565b611c91576040517f08c379a0000000000000000000000000000000000000000000000000000000008152600401611c8890612e9f565b60405180910390fd5b505050565b6000808273ffffffffffffffffffffffffffffffffffffffff163b119050919050565b600080600090507a184f03e93ff9f4daa797ed6e38ed64bf6a1f0100000000000000008310611d17577a184f03e93ff9f4daa797ed6e38ed64bf6a1f0100000000000000008381611d0d57611d0c61333f565b5b0492506040810190505b6d04ee2d6d415b85acef81000000008310611d54576d04ee2d6d415b85acef81000000008381611d4a57611d4961333f565b5b0492506020810190505b662386f26fc100008310611d8357662386f26fc100008381611d7957611d7861333f565b5b0492506010810190505b6305f5e1008310611dac576305f5e1008381611da257611da161333f565b5b0492506008810190505b6127108310611dd1576127108381611dc757611dc661333f565b5b0492506004810190505b60648310611df45760648381611dea57611de961333f565b5b0492506002810190505b600a8310611e03576001810190505b80915050919050565b600073ffffffffffffffffffffffffffffffffffffffff168273ffffffffffffffffffffffffffffffffffffffff1603611e7b576040517f08c379a0000000000000000000000000000000000000000000000000000000008152600401611e72906133ba565b60405180910390fd5b611e8481611879565b15611ec4576040517f08c379a0000000000000000000000000000000000000000000000000000000008152600401611ebb90613426565b60405180910390fd5b611ed26000838360016118ba565b611edb81611879565b15611f1b576040517f08c379a0000000000000000000000000000000000000000000000000000000008152600401611f1290613426565b60405180910390fd5b6001600360008473ffffffffffffffffffffffffffffffffffffffff1673ffffffffffffffffffffffffffffffffffffffff16815260200190815260200160002060008282540192505081905550816002600083815260200190815260200160002060006101000a81548173ffffffffffffffffffffffffffffffffffffffff021916908373ffffffffffffffffffffffffffffffffffffffff160217905550808273ffffffffffffffffffffffffffffffffffffffff16600073ffffffffffffffffffffffffffffffffffffffff167fddf252ad1be2c89b69c2b068fc378daa952ba7f163c4a11628f55a4df523b3ef60405160405180910390a46120256000838360016119e0565b5050565b6000604051905090565b600080fd5b600080fd5b60007fffffffff0000000000000000000000000000000000000000000000000000000082169050919050565b6120728161203d565b811461207d57600080fd5b50565b60008135905061208f81612069565b92915050565b6000602082840312156120ab576120aa612033565b5b60006120b984828501612080565b91505092915050565b60008115159050919050565b6120d7816120c2565b82525050565b60006020820190506120f260008301846120ce565b92915050565b600081519050919050565b600082825260208201905092915050565b60005b83811015612132578082015181840152602081019050612117565b60008484015250505050565b6000601f19601f8301169050919050565b600061215a826120f8565b6121648185612103565b9350612174818560208601612114565b61217d8161213e565b840191505092915050565b600060208201905081810360008301526121a2818461214f565b905092915050565b6000819050919050565b6121bd816121aa565b81146121c857600080fd5b50565b6000813590506121da816121b4565b92915050565b6000602082840312156121f6576121f5612033565b5b6000612204848285016121cb565b91505092915050565b600073ffffffffffffffffffffffffffffffffffffffff82169050919050565b60006122388261220d565b9050919050565b6122488161222d565b82525050565b6000602082019050612263600083018461223f565b92915050565b6122728161222d565b811461227d57600080fd5b50565b60008135905061228f81612269565b92915050565b600080604083850312156122ac576122ab612033565b5b60006122ba85828601612280565b92505060206122cb858286016121cb565b9150509250929050565b6000806000606084860312156122ee576122ed612033565b5b60006122fc86828701612280565b935050602061230d86828701612280565b925050604061231e868287016121cb565b9150509250925092565b6000819050919050565b600061234d6123486123438461220d565b612328565b61220d565b9050919050565b600061235f82612332565b9050919050565b600061237182612354565b9050919050565b61238181612366565b82525050565b600060208201905061239c6000830184612378565b92915050565b6000602082840312156123b8576123b7612033565b5b60006123c684828501612280565b91505092915050565b6123d8816121aa565b82525050565b60006020820190506123f360008301846123cf565b92915050565b612402816120c2565b811461240d57600080fd5b50565b60008135905061241f816123f9565b92915050565b6000806040838503121561243c5761243b612033565b5b600061244a85828601612280565b925050602061245b85828601612410565b9150509250929050565b600080fd5b600080fd5b7f4e487b7100000000000000000000000000000000000000000000000000000000600052604160045260246000fd5b6124a78261213e565b810181811067ffffffffffffffff821117156124c6576124c561246f565b5b80604052505050565b60006124d9612029565b90506124e5828261249e565b919050565b600067ffffffffffffffff8211156125055761250461246f565b5b61250e8261213e565b9050602081019050919050565b82818337600083830152505050565b600061253d612538846124ea565b6124cf565b9050828152602081018484840111156125595761255861246a565b5b61256484828561251b565b509392505050565b600082601f83011261258157612580612465565b5b813561259184826020860161252a565b91505092915050565b600080600080608085870312156125b4576125b3612033565b5b60006125c287828801612280565b94505060206125d387828801612280565b93505060406125e4878288016121cb565b925050606085013567ffffffffffffffff81111561260557612604612038565b5b6126118782880161256c565b91505092959194509250565b6000806040838503121561263457612633612033565b5b600061264285828601612280565b925050602061265385828601612280565b9150509250929050565b600067ffffffffffffffff8211156126785761267761246f565b5b6126818261213e565b9050602081019050919050565b60006126a161269c8461265d565b6124cf565b9050828152602081018484840111156126bd576126bc61246a565b5b6126c884828561251b565b509392505050565b600082601f8301126126e5576126e4612465565b5b81356126f584826020860161268e565b91505092915050565b60006020828403121561271457612713612033565b5b600082013567ffffffffffffffff81111561273257612731612038565b5b61273e848285016126d0565b91505092915050565b7f4e487b7100000000000000000000000000000000000000000000000000000000600052602260045260246000fd5b6000600282049050600182168061278e57607f821691505b6020821081036127a1576127a0612747565b5b50919050565b7f4552433732313a20617070726f76616c20746f2063757272656e74206f776e6560008201527f7200000000000000000000000000000000000000000000000000000000000000602082015250565b6000612803602183612103565b915061280e826127a7565b604082019050919050565b60006020820190508181036000830152612832816127f6565b9050919050565b7f4552433732313a20617070726f76652063616c6c6572206973206e6f7420746f60008201527f6b656e206f776e6572206f7220617070726f76656420666f7220616c6c000000602082015250565b6000612895603d83612103565b91506128a082612839565b604082019050919050565b600060208201905081810360008301526128c481612888565b9050919050565b7f4552433732313a2063616c6c6572206973206e6f7420746f6b656e206f776e6560008201527f72206f7220617070726f76656400000000000000000000000000000000000000602082015250565b6000612927602d83612103565b9150612932826128cb565b604082019050919050565b600060208201905081810360008301526129568161291a565b9050919050565b7f4552433732313a20696e76616c696420746f6b656e2049440000000000000000600082015250565b6000612993601883612103565b915061299e8261295d565b602082019050919050565b600060208201905081810360008301526129c281612986565b9050919050565b7f4552433732313a2061646472657373207a65726f206973206e6f74206120766160008201527f6c6964206f776e65720000000000000000000000000000000000000000000000602082015250565b6000612a25602983612103565b9150612a30826129c9565b604082019050919050565b60006020820190508181036000830152612a5481612a18565b9050919050565b600081519050612a6a816121b4565b92915050565b600060208284031215612a8657612a85612033565b5b6000612a9484828501612a5b565b91505092915050565b600081905092915050565b6000612ab3826120f8565b612abd8185612a9d565b9350612acd818560208601612114565b80840191505092915050565b6000612ae58285612aa8565b9150612af18284612aa8565b91508190509392505050565b6000604082019050612b12600083018561223f565b612b1f60208301846123cf565b9392505050565b600081519050612b35816123f9565b92915050565b600060208284031215612b5157612b50612033565b5b6000612b5f84828501612b26565b91505092915050565b7f4f776e61626c653a206e6577206f776e657220697320746865207a65726f206160008201527f6464726573730000000000000000000000000000000000000000000000000000602082015250565b6000612bc4602683612103565b9150612bcf82612b68565b604082019050919050565b60006020820190508181036000830152612bf381612bb7565b9050919050565b6000606082019050612c0f600083018661223f565b612c1c602083018561223f565b612c2960408301846123cf565b949350505050565b7f4552433732313a207472616e736665722066726f6d20696e636f72726563742060008201527f6f776e6572000000000000000000000000000000000000000000000000000000602082015250565b6000612c8d602583612103565b9150612c9882612c31565b604082019050919050565b60006020820190508181036000830152612cbc81612c80565b9050919050565b7f4552433732313a207472616e7366657220746f20746865207a65726f2061646460008201527f7265737300000000000000000000000000000000000000000000000000000000602082015250565b6000612d1f602483612103565b9150612d2a82612cc3565b604082019050919050565b60006020820190508181036000830152612d4e81612d12565b9050919050565b7f4f776e61626c653a2063616c6c6572206973206e6f7420746865206f776e6572600082015250565b6000612d8b602083612103565b9150612d9682612d55565b602082019050919050565b60006020820190508181036000830152612dba81612d7e565b9050919050565b7f4552433732313a20617070726f766520746f2063616c6c657200000000000000600082015250565b6000612df7601983612103565b9150612e0282612dc1565b602082019050919050565b60006020820190508181036000830152612e2681612dea565b9050919050565b7f4552433732313a207472616e7366657220746f206e6f6e20455243373231526560008201527f63656976657220696d706c656d656e7465720000000000000000000000000000602082015250565b6000612e89603283612103565b9150612e9482612e2d565b604082019050919050565b60006020820190508181036000830152612eb881612e7c565b9050919050565b7f45524337323155524953746f726167653a2055524920736574206f66206e6f6e60008201527f6578697374656e7420746f6b656e000000000000000000000000000000000000602082015250565b6000612f1b602e83612103565b9150612f2682612ebf565b604082019050919050565b60006020820190508181036000830152612f4a81612f0e565b9050919050565b60008190508160005260206000209050919050565b60006020601f8301049050919050565b600082821b905092915050565b600060088302612fb37fffffffffffffffffffffffffffffffffffffffffffffffffffffffffffffffff82612f76565b612fbd8683612f76565b95508019841693508086168417925050509392505050565b6000612ff0612feb612fe6846121aa565b612328565b6121aa565b9050919050565b6000819050919050565b61300a83612fd5565b61301e61301682612ff7565b848454612f83565b825550505050565b600090565b613033613026565b61303e818484613001565b505050565b5b818110156130625761305760008261302b565b600181019050613044565b5050565b601f8211156130a75761307881612f51565b61308184612f66565b81016020851015613090578190505b6130a461309c85612f66565b830182613043565b50505b505050565b600082821c905092915050565b60006130ca600019846008026130ac565b1980831691505092915050565b60006130e383836130b9565b9150826002028217905092915050565b6130fc826120f8565b67ffffffffffffffff8111156131155761311461246f565b5b61311f8254612776565b61312a828285613066565b600060209050601f83116001811461315d576000841561314b578287015190505b61315585826130d7565b8655506131bd565b601f19841661316b86612f51565b60005b828110156131935784890151825560018201915060208501945060208101905061316e565b868310156131b057848901516131ac601f8916826130b9565b8355505b6001600288020188555050505b505050505050565b7f4e487b7100000000000000000000000000000000000000000000000000000000600052601160045260246000fd5b60006131ff826121aa565b915061320a836121aa565b9250828203905081811115613222576132216131c5565b5b92915050565b6000613233826121aa565b915061323e836121aa565b9250828201905080821115613256576132556131c5565b5b92915050565b600081519050919050565b600082825260208201905092915050565b60006132838261325c565b61328d8185613267565b935061329d818560208601612114565b6132a68161213e565b840191505092915050565b60006080820190506132c6600083018761223f565b6132d3602083018661223f565b6132e060408301856123cf565b81810360608301526132f28184613278565b905095945050505050565b60008151905061330c81612069565b92915050565b60006020828403121561332857613327612033565b5b6000613336848285016132fd565b91505092915050565b7f4e487b7100000000000000000000000000000000000000000000000000000000600052601260045260246000fd5b7f4552433732313a206d696e7420746f20746865207a65726f2061646472657373600082015250565b60006133a4602083612103565b91506133af8261336e565b602082019050919050565b600060208201905081810360008301526133d381613397565b9050919050565b7f4552433732313a20746f6b656e20616c7265616479206d696e74656400000000600082015250565b6000613410601c83612103565b915061341b826133da565b602082019050919050565b6000602082019050818103600083015261343f81613403565b905091905056fea2646970667358221220b21ca035bb7776d5ffa95505bcb025596356f49401d170650a8f15ba6dd2ed0564736f6c63430008110033",
  "linkReferences": {},
  "deployedLinkReferences": {}
}